{
  "_format": "hh-sol-artifact-1",
  "contractName": "SimpleSwapRouter",
  "sourceName": "src/routers/SimpleSwapRouter.sol",
  "abi": [
    {
      "inputs": [
        {
          "components": [
            {
              "internalType": "address",
              "name": "tokenIn",
              "type": "address"
            },
            {
              "internalType": "address",
              "name": "tokenOut",
              "type": "address"
            },
            {
              "internalType": "uint24",
              "name": "fee",
              "type": "uint24"
            },
            {
              "internalType": "address",
              "name": "recipient",
              "type": "address"
            },
            {
              "internalType": "uint256",
              "name": "deadline",
              "type": "uint256"
            },
            {
              "internalType": "uint256",
              "name": "amountIn",
              "type": "uint256"
            },
            {
              "internalType": "uint256",
              "name": "amountOutMinimum",
              "type": "uint256"
            },
            {
              "internalType": "uint160",
              "name": "sqrtPriceLimitX96",
              "type": "uint160"
            }
          ],
          "internalType": "struct SimpleSwapRouter.ExactInputSingleParams",
          "name": "params",
          "type": "tuple"
        }
      ],
      "name": "exactInputSingle",
      "outputs": [
        {
          "internalType": "uint256",
          "name": "amountOut",
          "type": "uint256"
        }
      ],
      "stateMutability": "payable",
      "type": "function"
    },
    {
      "inputs": [
        {
          "internalType": "address",
          "name": "pool",
          "type": "address"
        },
        {
          "internalType": "address",
          "name": "weth",
          "type": "address"
        },
        {
          "components": [
            {
              "internalType": "address",
              "name": "tokenIn",
              "type": "address"
            },
            {
              "internalType": "address",
              "name": "tokenOut",
              "type": "address"
            },
            {
              "internalType": "uint24",
              "name": "fee",
              "type": "uint24"
            },
            {
              "internalType": "address",
              "name": "recipient",
              "type": "address"
            },
            {
              "internalType": "uint256",
              "name": "deadline",
              "type": "uint256"
            },
            {
              "internalType": "uint256",
              "name": "amountIn",
              "type": "uint256"
            },
            {
              "internalType": "uint256",
              "name": "amountOutMinimum",
              "type": "uint256"
            },
            {
              "internalType": "uint160",
              "name": "sqrtPriceLimitX96",
              "type": "uint160"
            }
          ],
          "internalType": "struct SimpleSwapRouter.ExactInputSingleParams",
          "name": "params",
          "type": "tuple"
        }
      ],
      "name": "exactInputSingleWithETH",
      "outputs": [
        {
          "internalType": "uint256",
          "name": "amountOut",
          "type": "uint256"
        }
      ],
      "stateMutability": "payable",
      "type": "function"
    },
    {
      "inputs": [
        {
          "internalType": "address",
          "name": "pool",
          "type": "address"
        },
        {
          "components": [
            {
              "internalType": "address",
              "name": "tokenIn",
              "type": "address"
            },
            {
              "internalType": "address",
              "name": "tokenOut",
              "type": "address"
            },
            {
              "internalType": "uint24",
              "name": "fee",
              "type": "uint24"
            },
            {
              "internalType": "address",
              "name": "recipient",
              "type": "address"
            },
            {
              "internalType": "uint256",
              "name": "deadline",
              "type": "uint256"
            },
            {
              "internalType": "uint256",
              "name": "amountIn",
              "type": "uint256"
            },
            {
              "internalType": "uint256",
              "name": "amountOutMinimum",
              "type": "uint256"
            },
            {
              "internalType": "uint160",
              "name": "sqrtPriceLimitX96",
              "type": "uint160"
            }
          ],
          "internalType": "struct SimpleSwapRouter.ExactInputSingleParams",
          "name": "params",
          "type": "tuple"
        }
      ],
      "name": "exactInputSingleWithPool",
      "outputs": [
        {
          "internalType": "uint256",
          "name": "amountOut",
          "type": "uint256"
        }
      ],
      "stateMutability": "payable",
      "type": "function"
    },
    {
      "inputs": [
        {
          "internalType": "int256",
          "name": "amount0Delta",
          "type": "int256"
        },
        {
          "internalType": "int256",
          "name": "amount1Delta",
          "type": "int256"
        },
        {
          "internalType": "bytes",
          "name": "data",
          "type": "bytes"
        }
      ],
      "name": "uniswapV3SwapCallback",
      "outputs": [],
      "stateMutability": "nonpayable",
      "type": "function"
    }
  ],
  "bytecode": "0x6080604052348015600f57600080fd5b50610f328061001f6000396000f3fe60806040526004361061003f5760003560e01c80632e53a76d14610044578063414bf3891461006957806375806d9b1461007c578063fa461e331461008f575b600080fd5b610057610052366004610af0565b6100b1565b60405190815260200160405180910390f35b610057610077366004610b39565b6101ea565b61005761008a366004610b5d565b610273565b34801561009b57600080fd5b506100af6100aa366004610b94565b610458565b005b60006001600160a01b0383166100ca6020840184610c15565b6001600160a01b03161461011c5760405162461bcd60e51b81526020600482015260146024820152730e8ded6cadc92dc40daeae6e840c4ca40ae8aa8960631b60448201526064015b60405180910390fd5b6000341161015c5760405162461bcd60e51b815260206004820152600d60248201526c09aeae6e840e6cadcc8408aa89609b1b6044820152606401610113565b826001600160a01b031663d0e30db0346040518263ffffffff1660e01b81526004016000604051808303818588803b15801561019757600080fd5b505af11580156101ab573d6000803e3d6000fd5b50505050506000828036038101906101c39190610c45565b3460a08201526001600160a01b038516815290506101e1858261063a565b95945050505050565b600081608001354211156102105760405162461bcd60e51b815260040161011390610d08565b60405162461bcd60e51b815260206004820152603260248201527f506f6f6c2061646472657373206e6565646564202d20757365206578616374496044820152711b9c1d5d14da5b99db1955da5d1a141bdbdb60721b6064820152608401610113565b600081608001354211156102995760405162461bcd60e51b815260040161011390610d08565b6102c1333060a08501356102b06020870187610c15565b6001600160a01b03169291906107a4565b60006102d36040840160208501610c15565b6001600160a01b03166102e96020850185610c15565b6001600160a01b031610905060006103046020850185610c15565b30604051602001610316929190610d35565b60408051601f1981840301815291905290506000806001600160a01b03871663128acb0861034a6080890160608a01610c15565b8660a08a01356103616101008c0160e08d01610c15565b6001600160a01b031615610385576103806101008c0160e08d01610c15565b6103ab565b886103a45773fffd8963efd1fc6a506488495d951d5263988d256103ab565b6401000276a45b886040518663ffffffff1660e01b81526004016103cc959493929190610d9f565b60408051808303816000875af11580156103ea573d6000803e3d6000fd5b505050506040513d601f19601f8201168201806040525081019061040e9190610dda565b915091508361041d578161041f565b805b61042890610dfe565b94508560c0013585101561044e5760405162461bcd60e51b815260040161011390610e28565b5050505092915050565b60008413806104675750600083135b6104a65760405162461bcd60e51b815260206004820152601060248201526f496e76616c69642063616c6c6261636b60801b6044820152606401610113565b6000806104b583850185610e55565b91509150600080871361052957336001600160a01b031663d21220a76040518163ffffffff1660e01b8152600401602060405180830381865afa158015610500573d6000803e3d6000fd5b505050506040513d601f19601f820116820180604052508101906105249190610e8e565b61058b565b336001600160a01b0316630dfe16816040518163ffffffff1660e01b8152600401602060405180830381865afa158015610567573d6000803e3d6000fd5b505050506040513d601f19601f8201168201806040525081019061058b9190610e8e565b9050826001600160a01b0316816001600160a01b0316146105df5760405162461bcd60e51b815260206004820152600e60248201526d0a8ded6cadc40dad2e6dac2e8c6d60931b6044820152606401610113565b60008088136105ee57866105f0565b875b9050306001600160a01b0384160361061b576106166001600160a01b0385163383610815565b610630565b6106306001600160a01b0385168433846107a4565b5050505050505050565b600081608001514211156106605760405162461bcd60e51b815260040161011390610d08565b60208083015183516040516001600160a01b03928316928216929092109260009261068e9291309101610d35565b6040516020818303038152906040529050600080866001600160a01b031663128acb088760600151868960a001518a60e001516001600160a01b03166000146106db578a60e00151610701565b886106fa5773fffd8963efd1fc6a506488495d951d5263988d25610701565b6401000276a45b886040518663ffffffff1660e01b8152600401610722959493929190610d9f565b60408051808303816000875af1158015610740573d6000803e3d6000fd5b505050506040513d601f19601f820116820180604052508101906107649190610dda565b91509150836107735781610775565b805b61077e90610dfe565b94508560c0015185101561044e5760405162461bcd60e51b815260040161011390610e28565b6040516001600160a01b038085166024830152831660448201526064810182905261080f9085906323b872dd60e01b906084015b60408051601f198184030181529190526020810180516001600160e01b03166001600160e01b03199093169290921790915261084a565b50505050565b6040516001600160a01b03831660248201526044810182905261084590849063a9059cbb60e01b906064016107d8565b505050565b600061089f826040518060400160405280602081526020017f5361666545524332303a206c6f772d6c6576656c2063616c6c206661696c6564815250856001600160a01b031661091f9092919063ffffffff16565b90508051600014806108c05750808060200190518101906108c09190610eab565b6108455760405162461bcd60e51b815260206004820152602a60248201527f5361666545524332303a204552433230206f7065726174696f6e20646964206e6044820152691bdd081cdd58d8d9595960b21b6064820152608401610113565b606061092e8484600085610936565b949350505050565b6060824710156109975760405162461bcd60e51b815260206004820152602660248201527f416464726573733a20696e73756666696369656e742062616c616e636520666f6044820152651c8818d85b1b60d21b6064820152608401610113565b600080866001600160a01b031685876040516109b39190610ecd565b60006040518083038185875af1925050503d80600081146109f0576040519150601f19603f3d011682016040523d82523d6000602084013e6109f5565b606091505b5091509150610a0687838387610a11565b979650505050505050565b60608315610a80578251600003610a79576001600160a01b0385163b610a795760405162461bcd60e51b815260206004820152601d60248201527f416464726573733a2063616c6c20746f206e6f6e2d636f6e74726163740000006044820152606401610113565b508161092e565b61092e8383815115610a955781518083602001fd5b8060405162461bcd60e51b81526004016101139190610ee9565b6001600160a01b0381168114610ac457600080fd5b50565b8035610ad281610aaf565b919050565b60006101008284031215610aea57600080fd5b50919050565b60008060006101408486031215610b0657600080fd5b8335610b1181610aaf565b92506020840135610b2181610aaf565b9150610b308560408601610ad7565b90509250925092565b60006101008284031215610b4c57600080fd5b610b568383610ad7565b9392505050565b6000806101208385031215610b7157600080fd5b8235610b7c81610aaf565b9150610b8b8460208501610ad7565b90509250929050565b60008060008060608587031215610baa57600080fd5b843593506020850135925060408501356001600160401b03811115610bce57600080fd5b8501601f81018713610bdf57600080fd5b80356001600160401b03811115610bf557600080fd5b876020828401011115610c0757600080fd5b949793965060200194505050565b600060208284031215610c2757600080fd5b8135610b5681610aaf565b803562ffffff81168114610ad257600080fd5b6000610100828403128015610c5957600080fd5b5060405160009061010081016001600160401b0381118282101715610c8c57634e487b7160e01b83526041600452602483fd5b604052610c9884610ac7565b8152610ca660208501610ac7565b6020820152610cb760408501610c32565b6040820152610cc860608501610ac7565b60608201526080848101359082015260a0808501359082015260c0808501359082018190529150610cfb60e08501610ac7565b60e0820152949350505050565b602080825260139082015272151c985b9cd858dd1a5bdb881d1bdbc81bdb19606a1b604082015260600190565b6001600160a01b0392831681529116602082015260400190565b60005b83811015610d6a578181015183820152602001610d52565b50506000910152565b60008151808452610d8b816020860160208601610d4f565b601f01601f19169290920160200192915050565b6001600160a01b0386811682528515156020830152604082018590528316606082015260a060808201819052600090610a0690830184610d73565b60008060408385031215610ded57600080fd5b505080516020909101519092909150565b6000600160ff1b8201610e2157634e487b7160e01b600052601160045260246000fd5b5060000390565b602080825260139082015272151bdbc81b1a5d1d1b19481c9958d95a5d9959606a1b604082015260600190565b60008060408385031215610e6857600080fd5b8235610e7381610aaf565b91506020830135610e8381610aaf565b809150509250929050565b600060208284031215610ea057600080fd5b8151610b5681610aaf565b600060208284031215610ebd57600080fd5b81518015158114610b5657600080fd5b60008251610edf818460208701610d4f565b9190910192915050565b602081526000610b566020830184610d7356fea26469706673582212204aa6611bb3c5137f9ec0c09fc6d88f26778bf1cdafffa13bcdae16b1b3ca51d664736f6c634300081c0033",
  "linkReferences": {},
  "deployedLinkReferences": {}
}