{
  "_format": "hh-sol-artifact-1",
  "contractName": "Entrypoint",
  "sourceName": "src/Entrypoint.sol",
  "abi": [
    {
      "inputs": [
        {
          "internalType": "address",
          "name": "_owner",
          "type": "address"
        }
      ],
      "stateMutability": "nonpayable",
      "type": "constructor"
    },
    {
      "inputs": [],
      "name": "NATIVE_ASSET",
      "outputs": [
        {
          "internalType": "address",
          "name": "",
          "type": "address"
        }
      ],
      "stateMutability": "view",
      "type": "function"
    },
    {
      "inputs": [
        {
          "internalType": "contract IERC20",
          "name": "_asset",
          "type": "address"
        },
        {
          "internalType": "uint256",
          "name": "_amount",
          "type": "uint256"
        },
        {
          "internalType": "uint256",
          "name": "_precommitment",
          "type": "uint256"
        }
      ],
      "name": "deposit",
      "outputs": [
        {
          "internalType": "uint256",
          "name": "_commitment",
          "type": "uint256"
        }
      ],
      "stateMutability": "payable",
      "type": "function"
    },
    {
      "inputs": [
        {
          "internalType": "address",
          "name": "asset",
          "type": "address"
        }
      ],
      "name": "getVault",
      "outputs": [
        {
          "internalType": "contract IVault",
          "name": "",
          "type": "address"
        }
      ],
      "stateMutability": "view",
      "type": "function"
    },
    {
      "inputs": [
        {
          "internalType": "address[]",
          "name": "assets",
          "type": "address[]"
        }
      ],
      "name": "initializeVaults",
      "outputs": [],
      "stateMutability": "nonpayable",
      "type": "function"
    },
    {
      "inputs": [],
      "name": "nonce",
      "outputs": [
        {
          "internalType": "uint256",
          "name": "",
          "type": "uint256"
        }
      ],
      "stateMutability": "view",
      "type": "function"
    },
    {
      "inputs": [],
      "name": "owner",
      "outputs": [
        {
          "internalType": "address",
          "name": "",
          "type": "address"
        }
      ],
      "stateMutability": "view",
      "type": "function"
    },
    {
      "inputs": [
        {
          "internalType": "contract IERC20",
          "name": "_asset",
          "type": "address"
        },
        {
          "internalType": "address",
          "name": "_recipient",
          "type": "address"
        },
        {
          "internalType": "uint256",
          "name": "_amount",
          "type": "uint256"
        },
        {
          "internalType": "uint256",
          "name": "_nullifier",
          "type": "uint256"
        },
        {
          "internalType": "uint256",
          "name": "_newCommitment",
          "type": "uint256"
        },
        {
          "internalType": "uint256[24]",
          "name": "_zkProof",
          "type": "uint256[24]"
        }
      ],
      "name": "withdraw",
      "outputs": [],
      "stateMutability": "nonpayable",
      "type": "function"
    }
  ],
  "bytecode": "0x6080604052348015600f57600080fd5b50604051615fa2380380615fa2833981016040819052602c91606b565b6001600160a01b03811615603f57806041565b335b600180546001600160a01b0319166001600160a01b03929092169190911790555060006002556099565b600060208284031215607c57600080fd5b81516001600160a01b0381168114609257600080fd5b9392505050565b615efa806100a86000396000f3fe6080604052600436106100605760003560e01c80630eb9af38146100655780630efe6a8b146100b45780633749a2ac146100d55780638da5cb5b146100f7578063aa1b5aa414610117578063affed0e014610137578063bf53253b1461014d575b600080fd5b34801561007157600080fd5b5061009e6100803660046106e6565b6001600160a01b039081166000908152602081905260409020541690565b6040516100ab919061070a565b60405180910390f35b6100c76100c236600461071e565b610175565b6040519081526020016100ab565b3480156100e157600080fd5b506100f56100f0366004610769565b6103e0565b005b34801561010357600080fd5b5060015461009e906001600160a01b031681565b34801561012357600080fd5b506100f5610132366004610838565b6105b2565b34801561014357600080fd5b506100c760025481565b34801561015957600080fd5b5061009e73eeeeeeeeeeeeeeeeeeeeeeeeeeeeeeeeeeeeeeee81565b6001600160a01b03808416600090815260208190526040812054909116806101b85760405162461bcd60e51b81526004016101af906108a5565b60405180910390fd5b73eeeeeeeeeeeeeeeeeeeeeeeeeeeeeeeeeeeeeeee6001600160a01b0316816001600160a01b0316635c222bad6040518163ffffffff1660e01b8152600401602060405180830381865afa158015610214573d6000803e3d6000fd5b505050506040513d601f19601f8201168201806040525081019061023891906108ec565b6001600160a01b0316036102e157600034116102665760405162461bcd60e51b81526004016101af90610909565b604051631c57762b60e31b81523460048201819052602482018590526001600160a01b0383169163e2bbb158919060440160206040518083038185885af11580156102b5573d6000803e3d6000fd5b50505050506040513d601f19601f820116820180604052508101906102da919061093a565b91506103d8565b600084116103015760405162461bcd60e51b81526004016101af90610909565b34156103635760405162461bcd60e51b815260206004820152602b60248201527f43616e6e6f742073656e6420455448207768656e206465706f736974696e672060448201526a22a9219918102a37b5b2b760a91b60648201526084016101af565b604051631c57762b60e31b815260048101859052602481018490526001600160a01b0382169063e2bbb158906044016020604051808303816000875af11580156103b1573d6000803e3d6000fd5b505050506040513d601f19601f820116820180604052508101906103d5919061093a565b91505b509392505050565b60005b81518110156105ae57600082828151811061040057610400610953565b6020908102919091018101516001600160a01b0380821660009081529283905260409092205490925016156104835760405162461bcd60e51b815260206004820152602360248201527f5661756c7420616c72656164792065786973747320666f7220746869732061736044820152621cd95d60ea1b60648201526084016101af565b600280546000918391908361049783610969565b9091555060405160609290921b6001600160601b0319166020830152603482015260540160405160208183030381529060405280519060200120905073eeeeeeeeeeeeeeeeeeeeeeeeeeeeeeeeeeeeeeee6001600160a01b0316826001600160a01b03161461053e57808260405161050e906106a4565b610518919061070a565b8190604051809103906000f5905080158015610538573d6000803e3d6000fd5b50610578565b808260405161054c906106b1565b610556919061070a565b8190604051809103906000f5905080158015610576573d6000803e3d6000fd5b505b6001600160a01b03928316600090815260208190526040902080546001600160a01b0319169190931617909155506001016103e3565b5050565b6001600160a01b0380871660009081526020819052604090205416806105ea5760405162461bcd60e51b81526004016101af906108a5565b600085116106355760405162461bcd60e51b815260206004820152601860248201527710d85b9b9bdd081dda5d1a191c985dc80c08185b5bdd5b9d60421b60448201526064016101af565b6040516372bd7ab560e11b81526001600160a01b0382169063e57af56a906106699089908990899089908990600401610990565b600060405180830381600087803b15801561068357600080fd5b505af1158015610697573d6000803e3d6000fd5b5050505050505050505050565b612c25806109ca83390190565b6128d6806135ef83390190565b6001600160a01b03811681146106d357600080fd5b50565b80356106e1816106be565b919050565b6000602082840312156106f857600080fd5b8135610703816106be565b9392505050565b6001600160a01b0391909116815260200190565b60008060006060848603121561073357600080fd5b833561073e816106be565b95602085013595506040909401359392505050565b634e487b7160e01b600052604160045260246000fd5b60006020828403121561077b57600080fd5b81356001600160401b0381111561079157600080fd5b8201601f810184136107a257600080fd5b80356001600160401b038111156107bb576107bb610753565b604051600582901b90603f8201601f191681016001600160401b03811182821017156107e9576107e9610753565b60405291825260208184018101929081018784111561080757600080fd5b6020850194505b8385101561082d5761081f856106d6565b81526020948501940161080e565b509695505050505050565b6000806000806000806103a0878903121561085257600080fd5b863561085d816106be565b9550602087013561086d816106be565b94506040870135935060608701359250608087013591506103a0870188101561089557600080fd5b60a0870190509295509295509295565b60208082526027908201527f4e6f207661756c742065786973747320666f72207468652072657175657374656040820152661908185cdcd95d60ca1b606082015260800190565b6000602082840312156108fe57600080fd5b8151610703816106be565b60208082526017908201527610d85b9b9bdd0819195c1bdcda5d080c08185b5bdd5b9d604a1b604082015260600190565b60006020828403121561094c57600080fd5b5051919050565b634e487b7160e01b600052603260045260246000fd5b60006001820161098957634e487b7160e01b600052601160045260246000fd5b5060010190565b6001600160a01b03861681526020810185905260408101849052606081018390526103808101610300836080840137969550505050505056fe60e060405234801561001057600080fd5b50604051612c25380380612c2583398101604081905261002f91610122565b6001600160a01b03811660a0526040516001600160601b031930606090811b8216602084015246603484015283901b166054820152819060680160408051601f1981840301815290829052805160209091012060805261008e90610108565b604051809103906000f0801580156100aa573d6000803e3d6000fd5b50600080546001600160a01b0319166001600160a01b03929092169190911790556040516100d790610115565b604051809103906000f0801580156100f3573d6000803e3d6000fd5b506001600160a01b031660c052506101529050565b61064080610e5e83390190565b6117878061149e83390190565b60006020828403121561013457600080fd5b81516001600160a01b038116811461014b57600080fd5b9392505050565b60805160a05160c051610cc361019b600039600061051501526000818160980152818160e60152818161075f015261079801526000818161011901526101590152610cc36000f3fe6080604052600436106100815760003560e01c806338d52e0f146100865780635c222bad146100d75780635d1ca6311461010a578063af640d0f14610147578063affed0e01461017b578063bb7df05214610191578063d21e82ab146101b1578063e2bbb158146101f1578063e4b2fb7914610204578063e57af56a1461023a575b600080fd5b34801561009257600080fd5b506100ba7f000000000000000000000000000000000000000000000000000000000000000081565b6040516001600160a01b0390911681526020015b60405180910390f35b3480156100e357600080fd5b507f00000000000000000000000000000000000000000000000000000000000000006100ba565b34801561011657600080fd5b507f00000000000000000000000000000000000000000000000000000000000000005b6040519081526020016100ce565b34801561015357600080fd5b506101397f000000000000000000000000000000000000000000000000000000000000000081565b34801561018757600080fd5b5061013960035481565b34801561019d57600080fd5b506000546100ba906001600160a01b031681565b3480156101bd57600080fd5b506101e16101cc366004610aca565b60016020526000908152604090205460ff1681565b60405190151581526020016100ce565b6101396101ff366004610ae3565b61025c565b34801561021057600080fd5b506100ba61021f366004610aca565b6002602052600090815260409020546001600160a01b031681565b34801561024657600080fd5b5061025a610255366004610b05565b610462565b005b60008083116102c35760405162461bcd60e51b815260206004820152602860248201527f4465706f73697420616d6f756e74206d7573742062652067726561746572207460448201526768616e207a65726f60c01b60648201526084015b60405180910390fd5b6000808052600260209081527fac33ff75c19e70fe83507db0d683fd3465c996598dc972688b7ace676c89077b80546001600160a01b0319163390811790915560408051808201825287815292830186905251632b0aac7f60e11b815290929173__$75f79a42d9bcbdbb69ad79ebd80f556f39$__9163561558fe9161034b91600401610b6a565b602060405180830381865af4158015610368573d6000803e3d6000fd5b505050506040513d601f19601f8201168201806040525081019061038c9190610b9b565b6000546040516390b5561d60e01b8152600481018390529194506001600160a01b0316906390b5561d906024016020604051808303816000875af11580156103d8573d6000803e3d6000fd5b505050506040513d601f19601f820116820180604052508101906103fc9190610b9b565b50610407828661070f565b6040805186815260208101859052908101859052606081018290526001600160a01b038316907fe3b53cd1a44fbf11535e145d80b8ef1ed6d57a73bf5daa7e939b6b01657d65499060800160405180910390a2505092915050565b60008060009054906101000a90046001600160a01b03166001600160a01b0316635ca1e1656040518163ffffffff1660e01b8152600401602060405180830381865afa1580156104b6573d6000803e3d6000fd5b505050506040513d601f19601f820116820180604052508101906104da9190610b9b565b6040805160808101825287815260208101839052808201869052606081018790529051631860fdad60e21b8152919250906001600160a01b037f00000000000000000000000000000000000000000000000000000000000000001690636183f6b49061054c9086908590600401610bb4565b602060405180830381865afa158015610569573d6000803e3d6000fd5b505050506040513d601f19601f8201168201806040525081019061058d9190610bf1565b6105cc5760405162461bcd60e51b815260206004820152601060248201526f24b73b30b634b2102d2590383937b7b360811b60448201526064016102ba565b60008581526001602052604090205460ff16156106255760405162461bcd60e51b8152602060048201526017602482015276139d5b1b1a599a595c88185b1c9958591e481cdc195b9d604a1b60448201526064016102ba565b6000858152600160208190526040808320805460ff1916909217909155905490516390b5561d60e01b8152600481018690526001600160a01b03909116906390b5561d906024016020604051808303816000875af115801561068b573d6000803e3d6000fd5b505050506040513d601f19601f820116820180604052508101906106af9190610b9b565b506106ba878761078b565b60408051878152602081018790529081018590526001600160a01b038816907f75e161b3e824b114fc1a33274bd7091918dd4e639cede50b78b15a4eea956a219060600160405180910390a250505050505050565b34156107525760405162461bcd60e51b8152602060048201526012602482015271086c2dcdcdee840e4cac6cad2ecca408aa8960731b60448201526064016102ba565b6107876001600160a01b037f0000000000000000000000000000000000000000000000000000000000000000168330846107bf565b5050565b6107876001600160a01b037f0000000000000000000000000000000000000000000000000000000000000000168383610830565b6040516001600160a01b038085166024830152831660448201526064810182905261082a9085906323b872dd60e01b906084015b60408051601f198184030181529190526020810180516001600160e01b03166001600160e01b031990931692909217909152610865565b50505050565b6040516001600160a01b03831660248201526044810182905261086090849063a9059cbb60e01b906064016107f3565b505050565b60006108ba826040518060400160405280602081526020017f5361666545524332303a206c6f772d6c6576656c2063616c6c206661696c6564815250856001600160a01b031661093a9092919063ffffffff16565b90508051600014806108db5750808060200190518101906108db9190610bf1565b6108605760405162461bcd60e51b815260206004820152602a60248201527f5361666545524332303a204552433230206f7065726174696f6e20646964206e6044820152691bdd081cdd58d8d9595960b21b60648201526084016102ba565b60606109498484600085610951565b949350505050565b6060824710156109b25760405162461bcd60e51b815260206004820152602660248201527f416464726573733a20696e73756666696369656e742062616c616e636520666f6044820152651c8818d85b1b60d21b60648201526084016102ba565b600080866001600160a01b031685876040516109ce9190610c3e565b60006040518083038185875af1925050503d8060008114610a0b576040519150601f19603f3d011682016040523d82523d6000602084013e610a10565b606091505b5091509150610a2187838387610a2c565b979650505050505050565b60608315610a9b578251600003610a94576001600160a01b0385163b610a945760405162461bcd60e51b815260206004820152601d60248201527f416464726573733a2063616c6c20746f206e6f6e2d636f6e747261637400000060448201526064016102ba565b5081610949565b6109498383815115610ab05781518083602001fd5b8060405162461bcd60e51b81526004016102ba9190610c5a565b600060208284031215610adc57600080fd5b5035919050565b60008060408385031215610af657600080fd5b50508035926020909101359150565b60008060008060006103808688031215610b1e57600080fd5b85356001600160a01b0381168114610b3557600080fd5b94506020860135935060408601359250606086013591506103808601871015610b5d57600080fd5b5092959194509260800190565b60408101818360005b6002811015610b92578151835260209283019290910190600101610b73565b50505092915050565b600060208284031215610bad57600080fd5b5051919050565b610380810161030084833761030082018360005b6004811015610be7578151835260209283019290910190600101610bc8565b5050509392505050565b600060208284031215610c0357600080fd5b81518015158114610c1357600080fd5b9392505050565b60005b83811015610c35578181015183820152602001610c1d565b50506000910152565b60008251610c50818460208701610c1a565b9190910192915050565b6020815260008251806020840152610c79816040850160208701610c1a565b601f01601f1916919091016040019291505056fea2646970667358221220b1aa5ebfba87af4918e7226f65ca583f3ab65f550b43b76a2bf17c1d8c2c9f8564736f6c634300081c00336080604052348015600f57600080fd5b506106218061001f6000396000f3fe608060405234801561001057600080fd5b506004361061008e5760003560e01c8063081dc68114610093578063367506ef146100c65780635ca1e165146100ce57806376a5cef3146100d657806390b5561d146100f957806390eeb02b1461010c578063a27154ba14610131578063cccf7a8e14610139578063cd87a3b41461014c578063de8fa43114610154575b600080fd5b6100b36100a13660046104bd565b60046020526000908152604090205481565b6040519081526020015b60405180910390f35b6001546100b3565b6100b361015c565b6100e96100e43660046104ea565b6101d8565b60405190151581526020016100bd565b6100b36101073660046104ea565b61026a565b60055461011c9063ffffffff1681565b60405163ffffffff90911681526020016100bd565b61011c602081565b6100e96101473660046104ea565b610439565b61011c606481565b6000546100b3565b604051637a3e5e1d60e11b81526000600482018190529073__$99c94127c8f73905b08f2d52133ba9abca$__9063f47cbc3a90602401602060405180830381865af41580156101af573d6000803e3d6000fd5b505050506040513d601f19601f820116820180604052508101906101d39190610503565b905090565b6000816000036101ea57506000919050565b60055463ffffffff1660015b606463ffffffff8216116102605763ffffffff8216600090815260046020526040902054840361022a575060019392505050565b60648061023684610532565b93506102429084610552565b61024c919061056e565b915080610258816105a4565b9150506101f6565b5060009392505050565b600154600090602010156102fc5760405162461bcd60e51b815260206004820152604960248201527f547265652064657074682068617320726561636865642069747320636170616360448201527f6974792e204e6f206c6f6e6765722061626c6520746f20696e73657274206e656064820152683b903632b0bb32b99760b91b608482015260a40160405180910390fd5b604051632f85497160e01b8152600060048201526024810183905273__$99c94127c8f73905b08f2d52133ba9abca$__90632f85497190604401602060405180830381865af4158015610353573d6000803e3d6000fd5b505050506040513d601f19601f820116820180604052508101906103779190610503565b6005805491925063ffffffff909116906000610392836105a4565b91906101000a81548163ffffffff021916908363ffffffff1602179055505080600460006064600560009054906101000a900463ffffffff166103d5919061056e565b63ffffffff1681526020808201929092526040908101600090812093909355915482519081529081018490529081018290527fcb249c8292372bd11f567786635483fca9e635030baafca55ff1a8940141d2219060600160405180910390a1919050565b60405163bc167a3160e01b8152600060048201819052602482018390529073__$99c94127c8f73905b08f2d52133ba9abca$__9063bc167a3190604401602060405180830381865af4158015610493573d6000803e3d6000fd5b505050506040513d601f19601f820116820180604052508101906104b791906105c9565b92915050565b6000602082840312156104cf57600080fd5b813563ffffffff811681146104e357600080fd5b9392505050565b6000602082840312156104fc57600080fd5b5035919050565b60006020828403121561051557600080fd5b5051919050565b634e487b7160e01b600052601160045260246000fd5b600063ffffffff8216806105485761054861051c565b6000190192915050565b63ffffffff81811683821601908111156104b7576104b761051c565b600063ffffffff83168061059257634e487b7160e01b600052601260045260246000fd5b8063ffffffff84160691505092915050565b600063ffffffff821663ffffffff81036105c0576105c061051c565b60010192915050565b6000602082840312156105db57600080fd5b815180151581146104e357600080fdfea264697066735822122085c269419800e27065d1e3d5b71d1ebb09f11595920f7638191eebb33e60c22364736f6c634300081c00336080604052348015600f57600080fd5b506117688061001f6000396000f3fe608060405234801561001057600080fd5b506004361061002b5760003560e01c80636183f6b414610030575b600080fd5b61004361003e3660046114ad565b610057565b604051901515815260200160405180910390f35b600061143e565b600080600184846000805b821561008b575092938183058581029091039350909181830290039081610069565b505050600181111561009c57600080fd5b505060008112156100aa5783015b9392505050565b60405181602084028301815160208301925060005b828410156100f7578185526000805160206116538339815191528451830991506020850194506020840193506100c6565b61010f6000805160206116538339815191528361005e565b91506020850394506020840393508592505b828411156101665760008051602061165383398151915285518309905060008051602061165383398151915284518309818552601f1995860195909401939150610121565b5090915250505050565b600080516020611653833981519152811061018f576000805260206000f35b50565b61019e61024435610170565b6101aa61026435610170565b6101b661028435610170565b6101c26102a435610170565b6101ce6102c435610170565b6101da6102e435610170565b565b6040805160008051602061169383398151915281527eea22da444996849109aeab49c3db451f404c58e11c418e48b53b7fde7483e960208083019182526000805160206115738339815191528385019081526000805160206116d3833981519152606080860191825260008051602061163383398151915260808088019190915260008051602061161383398151915260a08801526000805160206115b383398151915260c088015260008051602061171383398151915260e08801526000805160206116b38339815191526101008801526000805160206115938339815191526101208801526000805160206114f38339815191526101408801526000805160206116f38339815191526101608801526000805160206115138339815191526101808801526000805160206115f38339815191526101a08801526000805160206115338339815191526101c08801526000805160206116738339815191526101e088015289356102008801528985013561022088015289880135610240880152908901356102608701526004356102808701526024356102a08701526044356102c08701526064356102e087015260843561030087015260a43561032087015261034086206000805160206116538339815191529081900689860181815295909520819006978901978852848752965190945260c43590915260e435905290822083900680855290929091908280096102c08501528181526101043560208201526020610104013560408201526101443560608201526020610144013560808201526101843560a08201526020610184013560c082015260008051602061165383398151915260e082200691508160608501528181526102443560208201526102643560408201526102843560608201526102a43560808201526102c43560a08201526102e43560c082015260008051602061165383398151915260e08220068060c086015260008051602061165383398151915283850960a0860152600080516020611653833981519152838409925060008051602061165383398151915283840992506000805160206116538339815191528384099250600080516020611653833981519152838409925060008051602061165383398151915283840992506000805160206116538339815191528384099250600080516020611653833981519152838409925060008051602061165383398151915283840992506000805160206116538339815191528384099250600080516020611653833981519152838409925060008051602061165383398151915283840992506000805160206116538339815191528384099250600080516020611653833981519152838409925060008051602061165383398151915283840992506000805160206116538339815191528384099250826080860152600080516020611653833981519152806001850301069250826102e08601528261030086015260008051602061165383398151915281820992508260e0860152600080516020611653833981519152818409925082610100860152600080516020611653833981519152818409925082610120860152600080516020611653833981519152818409610140860152506101c43581526101e435602082015261020435604082015261022435606082015260809020600080516020611653833981519152900661016090930192909252505050565b600160008051602061165383398151915280600080516020611653833981519152836060860151030106618000096103208301526000805160206116538339815191526000805160206115538339815191528209905060008051602061165383398151915280600080516020611653833981519152836060860151030106618000096103408301526000805160206116538339815191526000805160206115538339815191528209905060008051602061165383398151915280600080516020611653833981519152836060860151030106618000096103608301526000805160206116538339815191526000805160206115538339815191528209905060008051602061165383398151915280600080516020611653833981519152836060860151030106618000096103808301526107ff600561030084016100b1565b6102e0820151600191506000805160206116538339815191528161032085015109610320840152600080516020611653833981519152600080516020611553833981519152830991506000805160206116538339815191528082610340860151098309610340840152600080516020611653833981519152600080516020611553833981519152830991506000805160206116538339815191528082610360860151098309610360840152600080516020611653833981519152600080516020611553833981519152830991506000805160206116538339815191528082610380860151098309610380840152505050565b60006000805160206116538339815191528060008051602061165383398151915260008601356103208601510983030106905060008051602061165383398151915280600080516020611653833981519152602086013561034086015109830301069050600080516020611653833981519152806000805160206116538339815191526040860135610360860151098303010690506000805160206116538339815191528060008051602061165383398151915260608601356103808601510983030106905080610180830152505050565b6101808101516000805160206116538339815191526102c083015161032084015109600080516020611653833981519152806102a4356020860151096102443508600080516020611653833981519152604085015182089050600080516020611653833981519152806102c4356020870151096102643508600080516020611653833981519152604086015182089050600080516020611653833981519152604086015161028435086000805160206116538339815191528160008051602061165383398151915284860909925050506000805160206116538339815191526102e43582099050600080516020611653833981519152600085015182099050600080516020611653833981519152808360008051602061165383398151915203068408925060008051602061165383398151915280826000805160206116538339815191520306840892505050806101a08301525050565b81358152602091820135910152565b6040518151815260208201516020820152825160408201526020830151606082015260408260808360066107d05a03fa905080610b6b576000805260206000f35b505050565b50505050565b600060405183815284602082015285604082015260408160608360076107d05a03fa915081610ba9576000805260206000f35b825160408201526020830151606082015260408360808360066107d05a03fa91505080610bda576000805260206000f35b5050505050565b600060405183815284602082015285604082015260408360608360076107d05a03fa91505080610bda576000805260206000f35b610b6b836020840151845184610be1565b6101c0810160408201516040516101008101604052610c666000805160206115938339815191526000805160206116b38339815191528590815260200152565b610cb66000805160206116538339815191526102643561024435097eea22da444996849109aeab49c3db451f404c58e11c418e48b53b7fde7483e960008051602061169383398151915286610b76565b610ce1610244356000805160206116d383398151915260008051602061157383398151915286610b76565b610d0c6102643560008051602061161383398151915260008051602061163383398151915286610b76565b610d37610284356000805160206117138339815191526000805160206115b383398151915286610b76565b60a08401516000805160206116538339815191528360008051602061165383398151915283610244350808600080516020611653833981519152846000805160206116538339815191528060028609610264350808600080516020611653833981519152856000805160206116538339815191528060038709610284350808925060008051602061165383398151915260008801516000805160206116538339815191528560008051602061165383398151915285870909096000805160206116538339815191526102c08901516103208a015109610e1a60c460c08801610b1b565b610e4f6000805160206116538339815191526101608b01516000805160206116538339815191528486080860c0880188610c15565b505060008051602061165383398151915285600080516020611653833981519152806102a43560208c015109610244350808915060008051602061165383398151915285600080516020611653833981519152806102c43560208c01510961026435080890506000805160206116538339815191526102e43560008051602061165383398151915260208a015160008b015109099250610f32600080516020611653833981519152846000805160206116538339815191528486090960008051602061167383398151915260008051602061153383398151915260408801610be1565b505050610f4461010460808301610b1b565b610f606080850151602061014401356101443560808501610b76565b60808401516000805160206116538339815191529080099150610f8e826101a4356101843560808501610b76565b610faa6102e085015160a0830151608084015160808501610be1565b6000805160206115d383398151915260206040830101516000805160206115d3833981519152030660206040830101526000805160206115d383398151915260a08201516000805160206115d3833981519152030660a082015261100e8184610b2a565b61101b6040820184610b2a565b610b706080820184610b2a565b6101c081015161020082019081526101e082015161022083015260c08201516110579060243560043584610b76565b60e082015161106c9060643560443584610b76565b6101008201516110829060a43560843584610b76565b6110af6101208301516000805160206116f38339815191526000805160206114f383398151915284610b76565b6110dc6101408301516000805160206115f383398151915260008051602061151383398151915284610b76565b5050565b6000805160206116538339815191526101a082015160008051602061165383398151915203066000805160206116538339815191528060c08401516102443509820890506000805160206116538339815191528060e084015161026435098208905060008051602061165383398151915280610100840151610284350982089050600080516020611653833981519152806101208401516102a4350982089050600080516020611653833981519152806101408401516102c4350982089050600080516020611653833981519152806101608401516102e43509820890506110dc81600260016102408601610be1565b6000604051610240810160405261018081016101c0820161020083016111f86101c484610b1b565b61120461020483610b1b565b6112146101608701518386610c15565b61121e8385610b2a565b6000805160206115d383398151915260208501516000805160206115d3833981519152030660208501527f26186a2d65ee4d2f9c9a5b91f86597d35f192cd120caf7e935d8443d1938e23d60408501527f30441fd1b5d3370482c42152a8899027716989a6996c2535bc9f7fee8aaef79e60608501527f1970ea81dd6992adfbc571effb03503adbbb6a857f578403c6c40e22d65b3c0260808501527f054793348f12c0cf5622c340573cb277586319de359ab9389778f689786b1e4860a08501526112f260608701518460c08701610c15565b60008051602061165383398151915260608701516101608801510992506000805160206116538339815191526000805160206115538339815191528409925061133c838383610c15565b6113498160c08601610b2a565b50505061135d610200840160c08301610b2a565b610260830180516000805160206115d383398151915290810306905261138a610240840160c08301610b2a565b7f198e9393920d483a7260bfb731fb5d25f1aa493335a9e71297e485b7aef312c26101008201527f1800deef121f1e76426a00665e5c4479674322d4f75edadd46debd5cd992f6ed6101208201527f090689d0585ff075ec9e99ad690c3395bc4b313370b38ef355acdadcd122975b6101408201527f12c85ea5db8c6deb4aab71808dcb408fe3d1e7690c43d37b4ce6cc0166fa7daa6101608201526020816101808360086107d05a03fa90511692915050565b6040516103a08101604052611451610192565b61145b83826101dc565b611464816106c0565b61146e83826108f1565b611477816109c3565b61148081610c26565b61148981611028565b611492816110e0565b61149b816111d0565b6103a082036040528060005260206000f35b60008061038083850312156114c157600080fd5b6103008301848111156114d357600080fd5b83925084610380850111156114e757600080fd5b80915050925092905056fe221adb7052e36f7f3816ac1db428dffffef180ecdad72e6ce8d6f8476d028fd90d020bba25dac23789a47d65fa205f7dc551607ca1880a697ff7a673c28f99801b2d75be850740deef3e3486262c5a79633e482cf1f0e7ae66adedf7a0baf1132d1ba66f5941dc91017171fa69ec2bd0022a2a2d4115a009a93458fd4e26ecfb135b6641692546c85be92f23db2192845e33c76f357309939ad39d5e7180a2711cfeac45ec703e337eda2b0ef3e2ed03cac2683d9c5c0f0a61eca21b5650d4681a83d2f0f1463b9f6befd987236c305247fb2111ccffbfac690b2136e0db386e30644e72e131a029b85045b68181585d97816a916871ca8d3c208c16d87cfd4721c3085d407146a3eff3c28a33d6a1120712547b44ee0206ec4370c451340d1519123a6d89ff2ff06a3ae9cb15df622ac5ab56c4d7d9f9652151117f71f4c6e82236f84563a50ea670dd6fa71a33326ef515eac5b996ed640baf9a2d41bcbc2730644e72e131a029b85045b68181585d2833e84879b9709143e1f593f00000011b0d1b68063e34e9edf176670ed70a0cd0c08113efe25b7d4c5d07ab7fa980700be7e11e79c9c6bfe49106fcc3bc55e861d01475a77c45b24a44ef7aa342428c0a92124c45114eee50800dfc4bddf26b84edd642afd6343e66879df08cb585d028dd512625ee385e99edc15bbcd10ccb8c55741b0580aa761aeecc77e4448d1417c5fb19e551d997e80126bec4cc7075b58d577b5bd883155329053adfa068a42ea6357ecfb6f08957d69c922a72bbb72e387afbc3cfeab50c4186772b07b87fa2646970667358221220599e9abce8920aa25bfcce855566b2ae1a1b256394639b41ff4841031d5dea3a64736f6c634300081c003360e060405234801561001057600080fd5b506040516128d63803806128d683398101604081905261002f91610122565b6001600160a01b03811660a0526040516001600160601b031930606090811b8216602084015246603484015283901b166054820152819060680160408051601f1981840301815290829052805160209091012060805261008e90610108565b604051809103906000f0801580156100aa573d6000803e3d6000fd5b50600080546001600160a01b0319166001600160a01b03929092169190911790556040516100d790610115565b604051809103906000f0801580156100f3573d6000803e3d6000fd5b506001600160a01b031660c052506101529050565b61064080610b0f83390190565b6117878061114f83390190565b60006020828403121561013457600080fd5b81516001600160a01b038116811461014b57600080fd5b9392505050565b60805160a05160c05161098261018d60003960006105150152600081816098015260e6015260008181610119015261015901526109826000f3fe6080604052600436106100815760003560e01c806338d52e0f146100865780635c222bad146100d75780635d1ca6311461010a578063af640d0f14610147578063affed0e01461017b578063bb7df05214610191578063d21e82ab146101b1578063e2bbb158146101f1578063e4b2fb7914610204578063e57af56a1461023a575b600080fd5b34801561009257600080fd5b506100ba7f000000000000000000000000000000000000000000000000000000000000000081565b6040516001600160a01b0390911681526020015b60405180910390f35b3480156100e357600080fd5b507f00000000000000000000000000000000000000000000000000000000000000006100ba565b34801561011657600080fd5b507f00000000000000000000000000000000000000000000000000000000000000005b6040519081526020016100ce565b34801561015357600080fd5b506101397f000000000000000000000000000000000000000000000000000000000000000081565b34801561018757600080fd5b5061013960035481565b34801561019d57600080fd5b506000546100ba906001600160a01b031681565b3480156101bd57600080fd5b506101e16101cc3660046107fc565b60016020526000908152604090205460ff1681565b60405190151581526020016100ce565b6101396101ff366004610815565b61025c565b34801561021057600080fd5b506100ba61021f3660046107fc565b6002602052600090815260409020546001600160a01b031681565b34801561024657600080fd5b5061025a610255366004610837565b610462565b005b60008083116102c35760405162461bcd60e51b815260206004820152602860248201527f4465706f73697420616d6f756e74206d7573742062652067726561746572207460448201526768616e207a65726f60c01b60648201526084015b60405180910390fd5b6000808052600260209081527fac33ff75c19e70fe83507db0d683fd3465c996598dc972688b7ace676c89077b80546001600160a01b0319163390811790915560408051808201825287815292830186905251632b0aac7f60e11b815290929173__$75f79a42d9bcbdbb69ad79ebd80f556f39$__9163561558fe9161034b9160040161089c565b602060405180830381865af4158015610368573d6000803e3d6000fd5b505050506040513d601f19601f8201168201806040525081019061038c91906108cd565b6000546040516390b5561d60e01b8152600481018390529194506001600160a01b0316906390b5561d906024016020604051808303816000875af11580156103d8573d6000803e3d6000fd5b505050506040513d601f19601f820116820180604052508101906103fc91906108cd565b50610407828661070f565b6040805186815260208101859052908101859052606081018290526001600160a01b038316907fe3b53cd1a44fbf11535e145d80b8ef1ed6d57a73bf5daa7e939b6b01657d65499060800160405180910390a2505092915050565b60008060009054906101000a90046001600160a01b03166001600160a01b0316635ca1e1656040518163ffffffff1660e01b8152600401602060405180830381865afa1580156104b6573d6000803e3d6000fd5b505050506040513d601f19601f820116820180604052508101906104da91906108cd565b6040805160808101825287815260208101839052808201869052606081018790529051631860fdad60e21b8152919250906001600160a01b037f00000000000000000000000000000000000000000000000000000000000000001690636183f6b49061054c90869085906004016108e6565b602060405180830381865afa158015610569573d6000803e3d6000fd5b505050506040513d601f19601f8201168201806040525081019061058d9190610923565b6105cc5760405162461bcd60e51b815260206004820152601060248201526f24b73b30b634b2102d2590383937b7b360811b60448201526064016102ba565b60008581526001602052604090205460ff16156106255760405162461bcd60e51b8152602060048201526017602482015276139d5b1b1a599a595c88185b1c9958591e481cdc195b9d604a1b60448201526064016102ba565b6000858152600160208190526040808320805460ff1916909217909155905490516390b5561d60e01b8152600481018690526001600160a01b03909116906390b5561d906024016020604051808303816000875af115801561068b573d6000803e3d6000fd5b505050506040513d601f19601f820116820180604052508101906106af91906108cd565b506106ba878761075e565b60408051878152602081018790529081018590526001600160a01b038816907f75e161b3e824b114fc1a33274bd7091918dd4e639cede50b78b15a4eea956a219060600160405180910390a250505050505050565b80341461075a5760405162461bcd60e51b8152602060048201526019602482015278125b98dbdc9c9958dd0811551208185b5bdd5b9d081cd95b9d603a1b60448201526064016102ba565b5050565b6000826001600160a01b03168260405160006040518083038185875af1925050503d80600081146107ab576040519150601f19603f3d011682016040523d82523d6000602084013e6107b0565b606091505b50509050806107f75760405162461bcd60e51b8152602060048201526013602482015272115512081d1c985b9cd9995c8819985a5b1959606a1b60448201526064016102ba565b505050565b60006020828403121561080e57600080fd5b5035919050565b6000806040838503121561082857600080fd5b50508035926020909101359150565b6000806000806000610380868803121561085057600080fd5b85356001600160a01b038116811461086757600080fd5b9450602086013593506040860135925060608601359150610380860187101561088f57600080fd5b5092959194509260800190565b60408101818360005b60028110156108c45781518352602092830192909101906001016108a5565b50505092915050565b6000602082840312156108df57600080fd5b5051919050565b610380810161030084833761030082018360005b60048110156109195781518352602092830192909101906001016108fa565b5050509392505050565b60006020828403121561093557600080fd5b8151801515811461094557600080fd5b939250505056fea2646970667358221220eb5eb2a9c54c73059ae602f5df89522ba349b371fc320caf3f80ecdee023a51364736f6c634300081c00336080604052348015600f57600080fd5b506106218061001f6000396000f3fe608060405234801561001057600080fd5b506004361061008e5760003560e01c8063081dc68114610093578063367506ef146100c65780635ca1e165146100ce57806376a5cef3146100d657806390b5561d146100f957806390eeb02b1461010c578063a27154ba14610131578063cccf7a8e14610139578063cd87a3b41461014c578063de8fa43114610154575b600080fd5b6100b36100a13660046104bd565b60046020526000908152604090205481565b6040519081526020015b60405180910390f35b6001546100b3565b6100b361015c565b6100e96100e43660046104ea565b6101d8565b60405190151581526020016100bd565b6100b36101073660046104ea565b61026a565b60055461011c9063ffffffff1681565b60405163ffffffff90911681526020016100bd565b61011c602081565b6100e96101473660046104ea565b610439565b61011c606481565b6000546100b3565b604051637a3e5e1d60e11b81526000600482018190529073__$99c94127c8f73905b08f2d52133ba9abca$__9063f47cbc3a90602401602060405180830381865af41580156101af573d6000803e3d6000fd5b505050506040513d601f19601f820116820180604052508101906101d39190610503565b905090565b6000816000036101ea57506000919050565b60055463ffffffff1660015b606463ffffffff8216116102605763ffffffff8216600090815260046020526040902054840361022a575060019392505050565b60648061023684610532565b93506102429084610552565b61024c919061056e565b915080610258816105a4565b9150506101f6565b5060009392505050565b600154600090602010156102fc5760405162461bcd60e51b815260206004820152604960248201527f547265652064657074682068617320726561636865642069747320636170616360448201527f6974792e204e6f206c6f6e6765722061626c6520746f20696e73657274206e656064820152683b903632b0bb32b99760b91b608482015260a40160405180910390fd5b604051632f85497160e01b8152600060048201526024810183905273__$99c94127c8f73905b08f2d52133ba9abca$__90632f85497190604401602060405180830381865af4158015610353573d6000803e3d6000fd5b505050506040513d601f19601f820116820180604052508101906103779190610503565b6005805491925063ffffffff909116906000610392836105a4565b91906101000a81548163ffffffff021916908363ffffffff1602179055505080600460006064600560009054906101000a900463ffffffff166103d5919061056e565b63ffffffff1681526020808201929092526040908101600090812093909355915482519081529081018490529081018290527fcb249c8292372bd11f567786635483fca9e635030baafca55ff1a8940141d2219060600160405180910390a1919050565b60405163bc167a3160e01b8152600060048201819052602482018390529073__$99c94127c8f73905b08f2d52133ba9abca$__9063bc167a3190604401602060405180830381865af4158015610493573d6000803e3d6000fd5b505050506040513d601f19601f820116820180604052508101906104b791906105c9565b92915050565b6000602082840312156104cf57600080fd5b813563ffffffff811681146104e357600080fd5b9392505050565b6000602082840312156104fc57600080fd5b5035919050565b60006020828403121561051557600080fd5b5051919050565b634e487b7160e01b600052601160045260246000fd5b600063ffffffff8216806105485761054861051c565b6000190192915050565b63ffffffff81811683821601908111156104b7576104b761051c565b600063ffffffff83168061059257634e487b7160e01b600052601260045260246000fd5b8063ffffffff84160691505092915050565b600063ffffffff821663ffffffff81036105c0576105c061051c565b60010192915050565b6000602082840312156105db57600080fd5b815180151581146104e357600080fdfea264697066735822122085c269419800e27065d1e3d5b71d1ebb09f11595920f7638191eebb33e60c22364736f6c634300081c00336080604052348015600f57600080fd5b506117688061001f6000396000f3fe608060405234801561001057600080fd5b506004361061002b5760003560e01c80636183f6b414610030575b600080fd5b61004361003e3660046114ad565b610057565b604051901515815260200160405180910390f35b600061143e565b600080600184846000805b821561008b575092938183058581029091039350909181830290039081610069565b505050600181111561009c57600080fd5b505060008112156100aa5783015b9392505050565b60405181602084028301815160208301925060005b828410156100f7578185526000805160206116538339815191528451830991506020850194506020840193506100c6565b61010f6000805160206116538339815191528361005e565b91506020850394506020840393508592505b828411156101665760008051602061165383398151915285518309905060008051602061165383398151915284518309818552601f1995860195909401939150610121565b5090915250505050565b600080516020611653833981519152811061018f576000805260206000f35b50565b61019e61024435610170565b6101aa61026435610170565b6101b661028435610170565b6101c26102a435610170565b6101ce6102c435610170565b6101da6102e435610170565b565b6040805160008051602061169383398151915281527eea22da444996849109aeab49c3db451f404c58e11c418e48b53b7fde7483e960208083019182526000805160206115738339815191528385019081526000805160206116d3833981519152606080860191825260008051602061163383398151915260808088019190915260008051602061161383398151915260a08801526000805160206115b383398151915260c088015260008051602061171383398151915260e08801526000805160206116b38339815191526101008801526000805160206115938339815191526101208801526000805160206114f38339815191526101408801526000805160206116f38339815191526101608801526000805160206115138339815191526101808801526000805160206115f38339815191526101a08801526000805160206115338339815191526101c08801526000805160206116738339815191526101e088015289356102008801528985013561022088015289880135610240880152908901356102608701526004356102808701526024356102a08701526044356102c08701526064356102e087015260843561030087015260a43561032087015261034086206000805160206116538339815191529081900689860181815295909520819006978901978852848752965190945260c43590915260e435905290822083900680855290929091908280096102c08501528181526101043560208201526020610104013560408201526101443560608201526020610144013560808201526101843560a08201526020610184013560c082015260008051602061165383398151915260e082200691508160608501528181526102443560208201526102643560408201526102843560608201526102a43560808201526102c43560a08201526102e43560c082015260008051602061165383398151915260e08220068060c086015260008051602061165383398151915283850960a0860152600080516020611653833981519152838409925060008051602061165383398151915283840992506000805160206116538339815191528384099250600080516020611653833981519152838409925060008051602061165383398151915283840992506000805160206116538339815191528384099250600080516020611653833981519152838409925060008051602061165383398151915283840992506000805160206116538339815191528384099250600080516020611653833981519152838409925060008051602061165383398151915283840992506000805160206116538339815191528384099250600080516020611653833981519152838409925060008051602061165383398151915283840992506000805160206116538339815191528384099250826080860152600080516020611653833981519152806001850301069250826102e08601528261030086015260008051602061165383398151915281820992508260e0860152600080516020611653833981519152818409925082610100860152600080516020611653833981519152818409925082610120860152600080516020611653833981519152818409610140860152506101c43581526101e435602082015261020435604082015261022435606082015260809020600080516020611653833981519152900661016090930192909252505050565b600160008051602061165383398151915280600080516020611653833981519152836060860151030106618000096103208301526000805160206116538339815191526000805160206115538339815191528209905060008051602061165383398151915280600080516020611653833981519152836060860151030106618000096103408301526000805160206116538339815191526000805160206115538339815191528209905060008051602061165383398151915280600080516020611653833981519152836060860151030106618000096103608301526000805160206116538339815191526000805160206115538339815191528209905060008051602061165383398151915280600080516020611653833981519152836060860151030106618000096103808301526107ff600561030084016100b1565b6102e0820151600191506000805160206116538339815191528161032085015109610320840152600080516020611653833981519152600080516020611553833981519152830991506000805160206116538339815191528082610340860151098309610340840152600080516020611653833981519152600080516020611553833981519152830991506000805160206116538339815191528082610360860151098309610360840152600080516020611653833981519152600080516020611553833981519152830991506000805160206116538339815191528082610380860151098309610380840152505050565b60006000805160206116538339815191528060008051602061165383398151915260008601356103208601510983030106905060008051602061165383398151915280600080516020611653833981519152602086013561034086015109830301069050600080516020611653833981519152806000805160206116538339815191526040860135610360860151098303010690506000805160206116538339815191528060008051602061165383398151915260608601356103808601510983030106905080610180830152505050565b6101808101516000805160206116538339815191526102c083015161032084015109600080516020611653833981519152806102a4356020860151096102443508600080516020611653833981519152604085015182089050600080516020611653833981519152806102c4356020870151096102643508600080516020611653833981519152604086015182089050600080516020611653833981519152604086015161028435086000805160206116538339815191528160008051602061165383398151915284860909925050506000805160206116538339815191526102e43582099050600080516020611653833981519152600085015182099050600080516020611653833981519152808360008051602061165383398151915203068408925060008051602061165383398151915280826000805160206116538339815191520306840892505050806101a08301525050565b81358152602091820135910152565b6040518151815260208201516020820152825160408201526020830151606082015260408260808360066107d05a03fa905080610b6b576000805260206000f35b505050565b50505050565b600060405183815284602082015285604082015260408160608360076107d05a03fa915081610ba9576000805260206000f35b825160408201526020830151606082015260408360808360066107d05a03fa91505080610bda576000805260206000f35b5050505050565b600060405183815284602082015285604082015260408360608360076107d05a03fa91505080610bda576000805260206000f35b610b6b836020840151845184610be1565b6101c0810160408201516040516101008101604052610c666000805160206115938339815191526000805160206116b38339815191528590815260200152565b610cb66000805160206116538339815191526102643561024435097eea22da444996849109aeab49c3db451f404c58e11c418e48b53b7fde7483e960008051602061169383398151915286610b76565b610ce1610244356000805160206116d383398151915260008051602061157383398151915286610b76565b610d0c6102643560008051602061161383398151915260008051602061163383398151915286610b76565b610d37610284356000805160206117138339815191526000805160206115b383398151915286610b76565b60a08401516000805160206116538339815191528360008051602061165383398151915283610244350808600080516020611653833981519152846000805160206116538339815191528060028609610264350808600080516020611653833981519152856000805160206116538339815191528060038709610284350808925060008051602061165383398151915260008801516000805160206116538339815191528560008051602061165383398151915285870909096000805160206116538339815191526102c08901516103208a015109610e1a60c460c08801610b1b565b610e4f6000805160206116538339815191526101608b01516000805160206116538339815191528486080860c0880188610c15565b505060008051602061165383398151915285600080516020611653833981519152806102a43560208c015109610244350808915060008051602061165383398151915285600080516020611653833981519152806102c43560208c01510961026435080890506000805160206116538339815191526102e43560008051602061165383398151915260208a015160008b015109099250610f32600080516020611653833981519152846000805160206116538339815191528486090960008051602061167383398151915260008051602061153383398151915260408801610be1565b505050610f4461010460808301610b1b565b610f606080850151602061014401356101443560808501610b76565b60808401516000805160206116538339815191529080099150610f8e826101a4356101843560808501610b76565b610faa6102e085015160a0830151608084015160808501610be1565b6000805160206115d383398151915260206040830101516000805160206115d3833981519152030660206040830101526000805160206115d383398151915260a08201516000805160206115d3833981519152030660a082015261100e8184610b2a565b61101b6040820184610b2a565b610b706080820184610b2a565b6101c081015161020082019081526101e082015161022083015260c08201516110579060243560043584610b76565b60e082015161106c9060643560443584610b76565b6101008201516110829060a43560843584610b76565b6110af6101208301516000805160206116f38339815191526000805160206114f383398151915284610b76565b6110dc6101408301516000805160206115f383398151915260008051602061151383398151915284610b76565b5050565b6000805160206116538339815191526101a082015160008051602061165383398151915203066000805160206116538339815191528060c08401516102443509820890506000805160206116538339815191528060e084015161026435098208905060008051602061165383398151915280610100840151610284350982089050600080516020611653833981519152806101208401516102a4350982089050600080516020611653833981519152806101408401516102c4350982089050600080516020611653833981519152806101608401516102e43509820890506110dc81600260016102408601610be1565b6000604051610240810160405261018081016101c0820161020083016111f86101c484610b1b565b61120461020483610b1b565b6112146101608701518386610c15565b61121e8385610b2a565b6000805160206115d383398151915260208501516000805160206115d3833981519152030660208501527f26186a2d65ee4d2f9c9a5b91f86597d35f192cd120caf7e935d8443d1938e23d60408501527f30441fd1b5d3370482c42152a8899027716989a6996c2535bc9f7fee8aaef79e60608501527f1970ea81dd6992adfbc571effb03503adbbb6a857f578403c6c40e22d65b3c0260808501527f054793348f12c0cf5622c340573cb277586319de359ab9389778f689786b1e4860a08501526112f260608701518460c08701610c15565b60008051602061165383398151915260608701516101608801510992506000805160206116538339815191526000805160206115538339815191528409925061133c838383610c15565b6113498160c08601610b2a565b50505061135d610200840160c08301610b2a565b610260830180516000805160206115d383398151915290810306905261138a610240840160c08301610b2a565b7f198e9393920d483a7260bfb731fb5d25f1aa493335a9e71297e485b7aef312c26101008201527f1800deef121f1e76426a00665e5c4479674322d4f75edadd46debd5cd992f6ed6101208201527f090689d0585ff075ec9e99ad690c3395bc4b313370b38ef355acdadcd122975b6101408201527f12c85ea5db8c6deb4aab71808dcb408fe3d1e7690c43d37b4ce6cc0166fa7daa6101608201526020816101808360086107d05a03fa90511692915050565b6040516103a08101604052611451610192565b61145b83826101dc565b611464816106c0565b61146e83826108f1565b611477816109c3565b61148081610c26565b61148981611028565b611492816110e0565b61149b816111d0565b6103a082036040528060005260206000f35b60008061038083850312156114c157600080fd5b6103008301848111156114d357600080fd5b83925084610380850111156114e757600080fd5b80915050925092905056fe221adb7052e36f7f3816ac1db428dffffef180ecdad72e6ce8d6f8476d028fd90d020bba25dac23789a47d65fa205f7dc551607ca1880a697ff7a673c28f99801b2d75be850740deef3e3486262c5a79633e482cf1f0e7ae66adedf7a0baf1132d1ba66f5941dc91017171fa69ec2bd0022a2a2d4115a009a93458fd4e26ecfb135b6641692546c85be92f23db2192845e33c76f357309939ad39d5e7180a2711cfeac45ec703e337eda2b0ef3e2ed03cac2683d9c5c0f0a61eca21b5650d4681a83d2f0f1463b9f6befd987236c305247fb2111ccffbfac690b2136e0db386e30644e72e131a029b85045b68181585d97816a916871ca8d3c208c16d87cfd4721c3085d407146a3eff3c28a33d6a1120712547b44ee0206ec4370c451340d1519123a6d89ff2ff06a3ae9cb15df622ac5ab56c4d7d9f9652151117f71f4c6e82236f84563a50ea670dd6fa71a33326ef515eac5b996ed640baf9a2d41bcbc2730644e72e131a029b85045b68181585d2833e84879b9709143e1f593f00000011b0d1b68063e34e9edf176670ed70a0cd0c08113efe25b7d4c5d07ab7fa980700be7e11e79c9c6bfe49106fcc3bc55e861d01475a77c45b24a44ef7aa342428c0a92124c45114eee50800dfc4bddf26b84edd642afd6343e66879df08cb585d028dd512625ee385e99edc15bbcd10ccb8c55741b0580aa761aeecc77e4448d1417c5fb19e551d997e80126bec4cc7075b58d577b5bd883155329053adfa068a42ea6357ecfb6f08957d69c922a72bbb72e387afbc3cfeab50c4186772b07b87fa2646970667358221220599e9abce8920aa25bfcce855566b2ae1a1b256394639b41ff4841031d5dea3a64736f6c634300081c0033a2646970667358221220d2161963071ba642817cda4f0de9a5c89cfa032d6ffeefb94d666050d133c3fe64736f6c634300081c0033",
  "linkReferences": {
    "@zk-kit/lean-imt.sol/LeanIMT.sol": {
      "LeanIMT": [
        {
          "length": 20,
          "start": 6756
        },
        {
          "length": 20,
          "start": 7176
        },
        {
          "length": 20,
          "start": 7496
        },
        {
          "length": 20,
          "start": 17210
        },
        {
          "length": 20,
          "start": 17630
        },
        {
          "length": 20,
          "start": 17950
        }
      ]
    },
    "poseidon-solidity/PoseidonT3.sol": {
      "PoseidonT3": [
        {
          "length": 20,
          "start": 3890
        },
        {
          "length": 20,
          "start": 15177
        }
      ]
    }
  },
  "deployedLinkReferences": {
    "@zk-kit/lean-imt.sol/LeanIMT.sol": {
      "LeanIMT": [
        {
          "length": 20,
          "start": 6588
        },
        {
          "length": 20,
          "start": 7008
        },
        {
          "length": 20,
          "start": 7328
        },
        {
          "length": 20,
          "start": 17042
        },
        {
          "length": 20,
          "start": 17462
        },
        {
          "length": 20,
          "start": 17782
        }
      ]
    },
    "poseidon-solidity/PoseidonT3.sol": {
      "PoseidonT3": [
        {
          "length": 20,
          "start": 3722
        },
        {
          "length": 20,
          "start": 15009
        }
      ]
    }
  }
}