{
  "_format": "hh-sol-artifact-1",
  "contractName": "MerkleTree",
  "sourceName": "src/states/MerkleTree.sol",
  "abi": [
    {
      "anonymous": false,
      "inputs": [
        {
          "indexed": false,
          "internalType": "uint256",
          "name": "_index",
          "type": "uint256"
        },
        {
          "indexed": false,
          "internalType": "uint256",
          "name": "_leaf",
          "type": "uint256"
        },
        {
          "indexed": false,
          "internalType": "uint256",
          "name": "_root",
          "type": "uint256"
        }
      ],
      "name": "LeafInserted",
      "type": "event"
    },
    {
      "inputs": [],
      "name": "MAX_DEPTH",
      "outputs": [
        {
          "internalType": "uint32",
          "name": "",
          "type": "uint32"
        }
      ],
      "stateMutability": "view",
      "type": "function"
    },
    {
      "inputs": [],
      "name": "ROOT_HISTORY_SIZE",
      "outputs": [
        {
          "internalType": "uint32",
          "name": "",
          "type": "uint32"
        }
      ],
      "stateMutability": "view",
      "type": "function"
    },
    {
      "inputs": [],
      "name": "currentRootIndex",
      "outputs": [
        {
          "internalType": "uint32",
          "name": "",
          "type": "uint32"
        }
      ],
      "stateMutability": "view",
      "type": "function"
    },
    {
      "inputs": [],
      "name": "getDepth",
      "outputs": [
        {
          "internalType": "uint256",
          "name": "",
          "type": "uint256"
        }
      ],
      "stateMutability": "view",
      "type": "function"
    },
    {
      "inputs": [],
      "name": "getRoot",
      "outputs": [
        {
          "internalType": "uint256",
          "name": "",
          "type": "uint256"
        }
      ],
      "stateMutability": "view",
      "type": "function"
    },
    {
      "inputs": [],
      "name": "getSize",
      "outputs": [
        {
          "internalType": "uint256",
          "name": "",
          "type": "uint256"
        }
      ],
      "stateMutability": "view",
      "type": "function"
    },
    {
      "inputs": [
        {
          "internalType": "uint256",
          "name": "_leaf",
          "type": "uint256"
        }
      ],
      "name": "has",
      "outputs": [
        {
          "internalType": "bool",
          "name": "",
          "type": "bool"
        }
      ],
      "stateMutability": "view",
      "type": "function"
    },
    {
      "inputs": [
        {
          "internalType": "uint256",
          "name": "_leaf",
          "type": "uint256"
        }
      ],
      "name": "insert",
      "outputs": [
        {
          "internalType": "uint256",
          "name": "_newRoot",
          "type": "uint256"
        }
      ],
      "stateMutability": "nonpayable",
      "type": "function"
    },
    {
      "inputs": [
        {
          "internalType": "uint256",
          "name": "_root",
          "type": "uint256"
        }
      ],
      "name": "rootExists",
      "outputs": [
        {
          "internalType": "bool",
          "name": "",
          "type": "bool"
        }
      ],
      "stateMutability": "view",
      "type": "function"
    },
    {
      "inputs": [
        {
          "internalType": "uint32",
          "name": "_index",
          "type": "uint32"
        }
      ],
      "name": "roots",
      "outputs": [
        {
          "internalType": "uint256",
          "name": "_root",
          "type": "uint256"
        }
      ],
      "stateMutability": "view",
      "type": "function"
    }
  ],
  "bytecode": "0x6080604052348015600f57600080fd5b506106218061001f6000396000f3fe608060405234801561001057600080fd5b506004361061008e5760003560e01c8063081dc68114610093578063367506ef146100c65780635ca1e165146100ce57806376a5cef3146100d657806390b5561d146100f957806390eeb02b1461010c578063a27154ba14610131578063cccf7a8e14610139578063cd87a3b41461014c578063de8fa43114610154575b600080fd5b6100b36100a13660046104bd565b60046020526000908152604090205481565b6040519081526020015b60405180910390f35b6001546100b3565b6100b361015c565b6100e96100e43660046104ea565b6101d8565b60405190151581526020016100bd565b6100b36101073660046104ea565b61026a565b60055461011c9063ffffffff1681565b60405163ffffffff90911681526020016100bd565b61011c602081565b6100e96101473660046104ea565b610439565b61011c606481565b6000546100b3565b604051637a3e5e1d60e11b81526000600482018190529073__$99c94127c8f73905b08f2d52133ba9abca$__9063f47cbc3a90602401602060405180830381865af41580156101af573d6000803e3d6000fd5b505050506040513d601f19601f820116820180604052508101906101d39190610503565b905090565b6000816000036101ea57506000919050565b60055463ffffffff1660015b606463ffffffff8216116102605763ffffffff8216600090815260046020526040902054840361022a575060019392505050565b60648061023684610532565b93506102429084610552565b61024c919061056e565b915080610258816105a4565b9150506101f6565b5060009392505050565b600154600090602010156102fc5760405162461bcd60e51b815260206004820152604960248201527f547265652064657074682068617320726561636865642069747320636170616360448201527f6974792e204e6f206c6f6e6765722061626c6520746f20696e73657274206e656064820152683b903632b0bb32b99760b91b608482015260a40160405180910390fd5b604051632f85497160e01b8152600060048201526024810183905273__$99c94127c8f73905b08f2d52133ba9abca$__90632f85497190604401602060405180830381865af4158015610353573d6000803e3d6000fd5b505050506040513d601f19601f820116820180604052508101906103779190610503565b6005805491925063ffffffff909116906000610392836105a4565b91906101000a81548163ffffffff021916908363ffffffff1602179055505080600460006064600560009054906101000a900463ffffffff166103d5919061056e565b63ffffffff1681526020808201929092526040908101600090812093909355915482519081529081018490529081018290527fcb249c8292372bd11f567786635483fca9e635030baafca55ff1a8940141d2219060600160405180910390a1919050565b60405163bc167a3160e01b8152600060048201819052602482018390529073__$99c94127c8f73905b08f2d52133ba9abca$__9063bc167a3190604401602060405180830381865af4158015610493573d6000803e3d6000fd5b505050506040513d601f19601f820116820180604052508101906104b791906105c9565b92915050565b6000602082840312156104cf57600080fd5b813563ffffffff811681146104e357600080fd5b9392505050565b6000602082840312156104fc57600080fd5b5035919050565b60006020828403121561051557600080fd5b5051919050565b634e487b7160e01b600052601160045260246000fd5b600063ffffffff8216806105485761054861051c565b6000190192915050565b63ffffffff81811683821601908111156104b7576104b761051c565b600063ffffffff83168061059257634e487b7160e01b600052601260045260246000fd5b8063ffffffff84160691505092915050565b600063ffffffff821663ffffffff81036105c0576105c061051c565b60010192915050565b6000602082840312156105db57600080fd5b815180151581146104e357600080fdfea264697066735822122085c269419800e27065d1e3d5b71d1ebb09f11595920f7638191eebb33e60c22364736f6c634300081c0033",
  "linkReferences": {
    "@zk-kit/lean-imt.sol/LeanIMT.sol": {
      "LeanIMT": [
        {
          "length": 20,
          "start": 404
        },
        {
          "length": 20,
          "start": 824
        },
        {
          "length": 20,
          "start": 1144
        }
      ]
    }
  },
  "deployedLinkReferences": {
    "@zk-kit/lean-imt.sol/LeanIMT.sol": {
      "LeanIMT": [
        {
          "length": 20,
          "start": 373
        },
        {
          "length": 20,
          "start": 793
        },
        {
          "length": 20,
          "start": 1113
        }
      ]
    }
  }
}