{
  "_format": "hh-sol-artifact-1",
  "contractName": "PlonkVerifier",
  "sourceName": "src/verifiers/WithdrawalVerifier.sol",
  "abi": [
    {
      "inputs": [
        {
          "internalType": "uint256[24]",
          "name": "_proof",
          "type": "uint256[24]"
        },
        {
          "internalType": "uint256[4]",
          "name": "_pubSignals",
          "type": "uint256[4]"
        }
      ],
      "name": "verifyProof",
      "outputs": [
        {
          "internalType": "bool",
          "name": "",
          "type": "bool"
        }
      ],
      "stateMutability": "view",
      "type": "function"
    }
  ],
  "bytecode": "0x6080604052348015600f57600080fd5b5061176a8061001f6000396000f3fe608060405234801561001057600080fd5b506004361061002b5760003560e01c80636183f6b414610030575b600080fd5b61004361003e3660046114cf565b610057565b604051901515815260200160405180910390f35b6000611460565b600080600184846000805b821561008b575092938183058581029091039350909181830290039081610069565b505050600181111561009c57600080fd5b505060008112156100aa5783015b9392505050565b60405181602084028301815160208301925060005b828410156100f7578185526000805160206116558339815191528451830991506020850194506020840193506100c6565b61010f6000805160206116558339815191528361005e565b91506020850394506020840393508592505b828411156101665760008051602061165583398151915285518309905060008051602061165583398151915284518309818552601f1995860195909401939150610121565b5090915250505050565b600080516020611655833981519152811061018f576000805260206000f35b50565b61019e61024435610170565b6101aa61026435610170565b6101b661028435610170565b6101c26102a435610170565b6101ce6102c435610170565b6101da6102e435610170565b565b604080516000805160206116f58339815191528152600080516020611675833981519152602080830191825260008051602061163583398151915283850190815260008051602061159583398151915260608086019182527eb45d0d6a654335fbd3f18078228ed207ad29378ac8b9045de2f98b8c76386660808088019190915260008051602061153583398151915260a08801527e38bf4875e9326c9947dc7fe41ada55de0f4499a06e0b0c9503cb0ed3770e6160c088015260008051602061155583398151915260e08801526000805160206116b58339815191526101008801526000805160206115d58339815191526101208801526000805160206115f58339815191526101408801526000805160206115758339815191526101608801526000805160206116958339815191526101808801526000805160206116d58339815191526101a08801526000805160206117158339815191526101c08801526000805160206116158339815191526101e088015289356102008801528985013561022088015289880135610240880152908901356102608701526004356102808701526024356102a08701526044356102c08701526064356102e087015260843561030087015260a43561032087015261034086206000805160206116558339815191529081900689860181815295909520819006978901978852848752965190945260c43590915260e435905290822083900680855290929091908280096102c08501528181526101043560208201526020610104013560408201526101443560608201526020610144013560808201526101843560a08201526020610184013560c082015260008051602061165583398151915260e082200691508160608501528181526102443560208201526102643560408201526102843560608201526102a43560808201526102c43560a08201526102e43560c082015260008051602061165583398151915260e08220068060c086015260008051602061165583398151915283850960a0860152600080516020611655833981519152838409925060008051602061165583398151915283840992506000805160206116558339815191528384099250600080516020611655833981519152838409925060008051602061165583398151915283840992506000805160206116558339815191528384099250600080516020611655833981519152838409925060008051602061165583398151915283840992506000805160206116558339815191528384099250600080516020611655833981519152838409925060008051602061165583398151915283840992506000805160206116558339815191528384099250600080516020611655833981519152838409925060008051602061165583398151915283840992506000805160206116558339815191528384099250826080860152600080516020611655833981519152806001850301069250826102e08601528261030086015260008051602061165583398151915281820992508260e0860152600080516020611655833981519152818409925082610100860152600080516020611655833981519152818409925082610120860152600080516020611655833981519152818409610140860152506101c43581526101e435602082015261020435604082015261022435606082015260809020600080516020611655833981519152900661016090930192909252505050565b60016000805160206116558339815191528060008051602061165583398151915283606086015103010661800009610320830152600080516020611655833981519152600080516020611515833981519152820990506000805160206116558339815191528060008051602061165583398151915283606086015103010661800009610340830152600080516020611655833981519152600080516020611515833981519152820990506000805160206116558339815191528060008051602061165583398151915283606086015103010661800009610360830152600080516020611655833981519152600080516020611515833981519152820990506000805160206116558339815191528060008051602061165583398151915283606086015103010661800009610380830152610810600561030084016100b1565b6102e0820151600191506000805160206116558339815191528161032085015109610320840152600080516020611655833981519152600080516020611515833981519152830991506000805160206116558339815191528082610340860151098309610340840152600080516020611655833981519152600080516020611515833981519152830991506000805160206116558339815191528082610360860151098309610360840152600080516020611655833981519152600080516020611515833981519152830991506000805160206116558339815191528082610380860151098309610380840152505050565b60006000805160206116558339815191528060008051602061165583398151915260008601356103208601510983030106905060008051602061165583398151915280600080516020611655833981519152602086013561034086015109830301069050600080516020611655833981519152806000805160206116558339815191526040860135610360860151098303010690506000805160206116558339815191528060008051602061165583398151915260608601356103808601510983030106905080610180830152505050565b6101808101516000805160206116558339815191526102c083015161032084015109600080516020611655833981519152806102a4356020860151096102443508600080516020611655833981519152604085015182089050600080516020611655833981519152806102c4356020870151096102643508600080516020611655833981519152604086015182089050600080516020611655833981519152604086015161028435086000805160206116558339815191528160008051602061165583398151915284860909925050506000805160206116558339815191526102e43582099050600080516020611655833981519152600085015182099050600080516020611655833981519152808360008051602061165583398151915203068408925060008051602061165583398151915280826000805160206116558339815191520306840892505050806101a08301525050565b81358152602091820135910152565b6040518151815260208201516020820152825160408201526020830151606082015260408260808360066107d05a03fa905080610b7c576000805260206000f35b505050565b50505050565b600060405183815284602082015285604082015260408160608360076107d05a03fa915081610bba576000805260206000f35b825160408201526020830151606082015260408360808360066107d05a03fa91505080610beb576000805260206000f35b5050505050565b600060405183815284602082015285604082015260408360608360076107d05a03fa91505080610beb576000805260206000f35b610b7c836020840151845184610bf2565b6101c0810160408201516040516101008101604052610c776000805160206115d58339815191526000805160206116b58339815191528590815260200152565b610cb66000805160206116558339815191526102643561024435096000805160206116758339815191526000805160206116f583398151915286610b87565b610ce16102443560008051602061159583398151915260008051602061163583398151915286610b87565b610d1d610264356000805160206115358339815191527eb45d0d6a654335fbd3f18078228ed207ad29378ac8b9045de2f98b8c76386686610b87565b610d59610284356000805160206115558339815191527e38bf4875e9326c9947dc7fe41ada55de0f4499a06e0b0c9503cb0ed3770e6186610b87565b60a08401516000805160206116558339815191528360008051602061165583398151915283610244350808600080516020611655833981519152846000805160206116558339815191528060028609610264350808600080516020611655833981519152856000805160206116558339815191528060038709610284350808925060008051602061165583398151915260008801516000805160206116558339815191528560008051602061165583398151915285870909096000805160206116558339815191526102c08901516103208a015109610e3c60c460c08801610b2c565b610e716000805160206116558339815191526101608b01516000805160206116558339815191528486080860c0880188610c26565b505060008051602061165583398151915285600080516020611655833981519152806102a43560208c015109610244350808915060008051602061165583398151915285600080516020611655833981519152806102c43560208c01510961026435080890506000805160206116558339815191526102e43560008051602061165583398151915260208a015160008b015109099250610f54600080516020611655833981519152846000805160206116558339815191528486090960008051602061161583398151915260008051602061171583398151915260408801610bf2565b505050610f6661010460808301610b2c565b610f826080850151602061014401356101443560808501610b87565b60808401516000805160206116558339815191529080099150610fb0826101a4356101843560808501610b87565b610fcc6102e085015160a0830151608084015160808501610bf2565b6000805160206115b583398151915260206040830101516000805160206115b5833981519152030660206040830101526000805160206115b583398151915260a08201516000805160206115b5833981519152030660a08201526110308184610b3b565b61103d6040820184610b3b565b610b816080820184610b3b565b6101c081015161020082019081526101e082015161022083015260c08201516110799060243560043584610b87565b60e082015161108e9060643560443584610b87565b6101008201516110a49060a43560843584610b87565b6110d16101208301516000805160206115758339815191526000805160206115f583398151915284610b87565b6110fe6101408301516000805160206116d583398151915260008051602061169583398151915284610b87565b5050565b6000805160206116558339815191526101a082015160008051602061165583398151915203066000805160206116558339815191528060c08401516102443509820890506000805160206116558339815191528060e084015161026435098208905060008051602061165583398151915280610100840151610284350982089050600080516020611655833981519152806101208401516102a4350982089050600080516020611655833981519152806101408401516102c4350982089050600080516020611655833981519152806101608401516102e43509820890506110fe81600260016102408601610bf2565b6000604051610240810160405261018081016101c08201610200830161121a6101c484610b2c565b61122661020483610b2c565b6112366101608701518386610c26565b6112408385610b3b565b6000805160206115b583398151915260208501516000805160206115b5833981519152030660208501527f26186a2d65ee4d2f9c9a5b91f86597d35f192cd120caf7e935d8443d1938e23d60408501527f30441fd1b5d3370482c42152a8899027716989a6996c2535bc9f7fee8aaef79e60608501527f1970ea81dd6992adfbc571effb03503adbbb6a857f578403c6c40e22d65b3c0260808501527f054793348f12c0cf5622c340573cb277586319de359ab9389778f689786b1e4860a085015261131460608701518460c08701610c26565b60008051602061165583398151915260608701516101608801510992506000805160206116558339815191526000805160206115158339815191528409925061135e838383610c26565b61136b8160c08601610b3b565b50505061137f610200840160c08301610b3b565b610260830180516000805160206115b58339815191529081030690526113ac610240840160c08301610b3b565b7f198e9393920d483a7260bfb731fb5d25f1aa493335a9e71297e485b7aef312c26101008201527f1800deef121f1e76426a00665e5c4479674322d4f75edadd46debd5cd992f6ed6101208201527f090689d0585ff075ec9e99ad690c3395bc4b313370b38ef355acdadcd122975b6101408201527f12c85ea5db8c6deb4aab71808dcb408fe3d1e7690c43d37b4ce6cc0166fa7daa6101608201526020816101808360086107d05a03fa90511692915050565b6040516103a08101604052611473610192565b61147d83826101dc565b611486816106d1565b6114908382610902565b611499816109d4565b6114a281610c37565b6114ab8161104a565b6114b481611102565b6114bd816111f2565b6103a082036040528060005260206000f35b60008061038083850312156114e357600080fd5b6103008301848111156114f557600080fd5b839250846103808501111561150957600080fd5b80915050925092905056fe2d1ba66f5941dc91017171fa69ec2bd0022a2a2d4115a009a93458fd4e26ecfb1c3f0ab6aad2092981fe39d59f0138ad83c6ac564efebad5320eda6a06a7f977028f005be567407733fd4415261e102cb131ab4dfc9e130d7df4c82d47bd0b371095554aa398228ec11f6fe9e7a018ae498c72a73da43b443052281fc7432bc711ad887869746fc00f83d60ba1e7176bbd2048cd1ddeeba6639a02ee6e033acd30644e72e131a029b85045b68181585d97816a916871ca8d3c208c16d87cfd47095d12a23430ef4a64c329b9af841fa9933b68e9abf27c5dae570ebf59d23da01f61d8a9e01f214bbc77593207430a3ce6e979f18933b2410d2d5cb37f5ef89918276c02abe716973fd3aeef389ea67929302e586332e9b4c5c5b3d690d8f6962449b96a9db26c11c4efdde9128a1f6886def1262abcdb728793ba0d3c03d97330644e72e131a029b85045b68181585d2833e84879b9709143e1f593f0000001155035917b6435159b67f1005532735bc8380a00167522f6e85d37a354d696281aa4b781cfcbc95707d093cd0bdb02f670af59eb580e7cc59f6995763a9c0b1e2f4ee20fd1a6fba41bee70170910585c1c3f6cab200fd6895028395f4a3f9e19104f837128bfdadf2dca18fb80fa1479523702cf827469f2c405b2d0b916d29f199f94f086c6c045d379114eef2f7ffbaf5c92cab2b384f8752acbfa8971bedb0f24bc1b1c824d3e091458f600cd2b210bc7464ea77775ae02ec6b8da0dda664a2646970667358221220508465f1abe413b93f53aaf7b96db190b810622f5386b36d7e31c2765404353364736f6c634300081c0033",
  "linkReferences": {},
  "deployedLinkReferences": {}
}