{
  "_format": "hh-sol-artifact-1",
  "contractName": "AlternativeVault",
  "sourceName": "src/states/AlternativeVault.sol",
  "abi": [
    {
      "inputs": [
        {
          "internalType": "address",
          "name": "_asset",
          "type": "address"
        },
        {
          "internalType": "address",
          "name": "_verifier",
          "type": "address"
        }
      ],
      "stateMutability": "nonpayable",
      "type": "constructor"
    },
    {
      "inputs": [],
      "name": "AmountMismatch",
      "type": "error"
    },
    {
      "inputs": [],
      "name": "InvalidDepositAmount",
      "type": "error"
    },
    {
      "inputs": [],
      "name": "InvalidWithdrawalAmount",
      "type": "error"
    },
    {
      "inputs": [],
      "name": "InvalidZKProof",
      "type": "error"
    },
    {
      "inputs": [],
      "name": "NativeFundReceived",
      "type": "error"
    },
    {
      "inputs": [],
      "name": "NativeTransferFailed",
      "type": "error"
    },
    {
      "inputs": [],
      "name": "NullifierAlreadySpent",
      "type": "error"
    },
    {
      "anonymous": false,
      "inputs": [
        {
          "indexed": false,
          "internalType": "uint256",
          "name": "amount",
          "type": "uint256"
        },
        {
          "indexed": false,
          "internalType": "uint256",
          "name": "nullifier",
          "type": "uint256"
        },
        {
          "indexed": false,
          "internalType": "uint256",
          "name": "newCommitment",
          "type": "uint256"
        }
      ],
      "name": "CommitmentUpdated",
      "type": "event"
    },
    {
      "anonymous": false,
      "inputs": [
        {
          "indexed": true,
          "internalType": "address",
          "name": "depositor",
          "type": "address"
        },
        {
          "indexed": false,
          "internalType": "uint256",
          "name": "amount",
          "type": "uint256"
        },
        {
          "indexed": false,
          "internalType": "uint256",
          "name": "commitment",
          "type": "uint256"
        },
        {
          "indexed": false,
          "internalType": "uint256",
          "name": "precommitment",
          "type": "uint256"
        }
      ],
      "name": "Deposited",
      "type": "event"
    },
    {
      "anonymous": false,
      "inputs": [
        {
          "indexed": true,
          "internalType": "address",
          "name": "recipient",
          "type": "address"
        },
        {
          "components": [
            {
              "internalType": "address",
              "name": "pool",
              "type": "address"
            },
            {
              "internalType": "address",
              "name": "srcToken",
              "type": "address"
            },
            {
              "internalType": "address",
              "name": "dstToken",
              "type": "address"
            },
            {
              "internalType": "address payable",
              "name": "recipient",
              "type": "address"
            },
            {
              "internalType": "uint256",
              "name": "amountIn",
              "type": "uint256"
            },
            {
              "internalType": "uint256",
              "name": "minAmountOut",
              "type": "uint256"
            },
            {
              "internalType": "uint24",
              "name": "fee",
              "type": "uint24"
            }
          ],
          "indexed": false,
          "internalType": "struct IVault.SwapParam",
          "name": "_param",
          "type": "tuple"
        },
        {
          "indexed": false,
          "internalType": "uint256",
          "name": "_spentNullifier",
          "type": "uint256"
        },
        {
          "indexed": false,
          "internalType": "uint256",
          "name": "_newCommitment",
          "type": "uint256"
        }
      ],
      "name": "Swapped",
      "type": "event"
    },
    {
      "anonymous": false,
      "inputs": [
        {
          "indexed": true,
          "internalType": "address",
          "name": "recipient",
          "type": "address"
        },
        {
          "indexed": false,
          "internalType": "uint256",
          "name": "amount",
          "type": "uint256"
        },
        {
          "indexed": false,
          "internalType": "uint256",
          "name": "nullifier",
          "type": "uint256"
        },
        {
          "indexed": false,
          "internalType": "uint256",
          "name": "newCommitment",
          "type": "uint256"
        }
      ],
      "name": "Withdrawn",
      "type": "event"
    },
    {
      "inputs": [],
      "name": "asset",
      "outputs": [
        {
          "internalType": "address",
          "name": "",
          "type": "address"
        }
      ],
      "stateMutability": "view",
      "type": "function"
    },
    {
      "inputs": [
        {
          "internalType": "uint256",
          "name": "_amount",
          "type": "uint256"
        },
        {
          "internalType": "uint256",
          "name": "_precommitment",
          "type": "uint256"
        }
      ],
      "name": "deposit",
      "outputs": [
        {
          "internalType": "uint256",
          "name": "_commitment",
          "type": "uint256"
        }
      ],
      "stateMutability": "payable",
      "type": "function"
    },
    {
      "inputs": [],
      "name": "getAsset",
      "outputs": [
        {
          "internalType": "address",
          "name": "_asset",
          "type": "address"
        }
      ],
      "stateMutability": "view",
      "type": "function"
    },
    {
      "inputs": [],
      "name": "merkleTree",
      "outputs": [
        {
          "internalType": "contract MerkleTree",
          "name": "",
          "type": "address"
        }
      ],
      "stateMutability": "view",
      "type": "function"
    },
    {
      "inputs": [],
      "name": "nonce",
      "outputs": [
        {
          "internalType": "uint256",
          "name": "",
          "type": "uint256"
        }
      ],
      "stateMutability": "view",
      "type": "function"
    },
    {
      "inputs": [
        {
          "internalType": "uint256",
          "name": "_nullifier",
          "type": "uint256"
        }
      ],
      "name": "nullifiers",
      "outputs": [
        {
          "internalType": "bool",
          "name": "_spent",
          "type": "bool"
        }
      ],
      "stateMutability": "view",
      "type": "function"
    },
    {
      "inputs": [
        {
          "components": [
            {
              "internalType": "address",
              "name": "pool",
              "type": "address"
            },
            {
              "internalType": "address",
              "name": "srcToken",
              "type": "address"
            },
            {
              "internalType": "address",
              "name": "dstToken",
              "type": "address"
            },
            {
              "internalType": "address payable",
              "name": "recipient",
              "type": "address"
            },
            {
              "internalType": "uint256",
              "name": "amountIn",
              "type": "uint256"
            },
            {
              "internalType": "uint256",
              "name": "minAmountOut",
              "type": "uint256"
            },
            {
              "internalType": "uint24",
              "name": "fee",
              "type": "uint24"
            }
          ],
          "internalType": "struct IVault.SwapParam",
          "name": "_param",
          "type": "tuple"
        },
        {
          "internalType": "address",
          "name": "_swapRouter",
          "type": "address"
        },
        {
          "components": [
            {
              "internalType": "uint256",
              "name": "stateRoot",
              "type": "uint256"
            },
            {
              "internalType": "uint256",
              "name": "nullifier",
              "type": "uint256"
            },
            {
              "internalType": "uint256",
              "name": "newCommitment",
              "type": "uint256"
            },
            {
              "internalType": "uint256[24]",
              "name": "proof",
              "type": "uint256[24]"
            }
          ],
          "internalType": "struct IVault.ZKProof",
          "name": "_zkProof",
          "type": "tuple"
        }
      ],
      "name": "swap",
      "outputs": [],
      "stateMutability": "nonpayable",
      "type": "function"
    },
    {
      "inputs": [
        {
          "internalType": "uint256",
          "name": "_amount",
          "type": "uint256"
        },
        {
          "internalType": "uint256",
          "name": "_stateRoot",
          "type": "uint256"
        },
        {
          "internalType": "uint256",
          "name": "_nullifier",
          "type": "uint256"
        },
        {
          "internalType": "uint256",
          "name": "_newCommitment",
          "type": "uint256"
        },
        {
          "internalType": "uint256[24]",
          "name": "_proof",
          "type": "uint256[24]"
        }
      ],
      "name": "updateCommitment",
      "outputs": [],
      "stateMutability": "nonpayable",
      "type": "function"
    },
    {
      "inputs": [
        {
          "internalType": "uint256",
          "name": "_amount",
          "type": "uint256"
        },
        {
          "internalType": "uint256",
          "name": "_stateRoot",
          "type": "uint256"
        },
        {
          "internalType": "uint256",
          "name": "_nullifier",
          "type": "uint256"
        },
        {
          "internalType": "uint256",
          "name": "_newCommitment",
          "type": "uint256"
        },
        {
          "internalType": "uint256[24]",
          "name": "_proof",
          "type": "uint256[24]"
        }
      ],
      "name": "verify",
      "outputs": [
        {
          "internalType": "bool",
          "name": "",
          "type": "bool"
        }
      ],
      "stateMutability": "view",
      "type": "function"
    },
    {
      "inputs": [
        {
          "internalType": "address",
          "name": "_recipient",
          "type": "address"
        },
        {
          "internalType": "uint256",
          "name": "_amount",
          "type": "uint256"
        },
        {
          "internalType": "uint256",
          "name": "_stateRoot",
          "type": "uint256"
        },
        {
          "internalType": "uint256",
          "name": "_nullifier",
          "type": "uint256"
        },
        {
          "internalType": "uint256",
          "name": "_newCommitment",
          "type": "uint256"
        },
        {
          "internalType": "uint256[24]",
          "name": "_proof",
          "type": "uint256[24]"
        }
      ],
      "name": "withdraw",
      "outputs": [],
      "stateMutability": "nonpayable",
      "type": "function"
    }
  ],
  "bytecode": "0x60c060405234801561001057600080fd5b50604051611c23380380611c2383398101604081905261002f916100bb565b6001600160a01b0382166080526040518290829061004c90610092565b604051809103906000f080158015610068573d6000803e3d6000fd5b50600080546001600160a01b0319166001600160a01b039283161790551660a052506100ee915050565b6106db8061154883390190565b80516001600160a01b03811681146100b657600080fd5b919050565b600080604083850312156100ce57600080fd5b6100d78361009f565b91506100e56020840161009f565b90509250929050565b60805160a0516113ff61014960003960008181610269015281816104b001528181610680015261073e01526000818160980152818160e601528181610a7601528181610b0001528181610c1b0152610c7201526113ff6000f3fe6080604052600436106100815760003560e01c806338d52e0f146100865780635c222bad146100d75780636208d9531461010a5780636f65bbac1461012c57806386ea04361461014c57806389b97d091461017c578063affed0e01461019c578063bb7df052146101c0578063d21e82ab146101e0578063e2bbb15814610210575b600080fd5b34801561009257600080fd5b506100ba7f000000000000000000000000000000000000000000000000000000000000000081565b6040516001600160a01b0390911681526020015b60405180910390f35b3480156100e357600080fd5b507f00000000000000000000000000000000000000000000000000000000000000006100ba565b34801561011657600080fd5b5061012a610125366004610ffe565b610223565b005b34801561013857600080fd5b5061012a6101473660046110f9565b610476565b34801561015857600080fd5b5061016c6101673660046110f9565b610644565b60405190151581526020016100ce565b34801561018857600080fd5b5061012a610197366004611144565b610704565b3480156101a857600080fd5b506101b260025481565b6040519081526020016100ce565b3480156101cc57600080fd5b506000546100ba906001600160a01b031681565b3480156101ec57600080fd5b5061016c6101fb3660046111a0565b60016020526000908152604090205460ff1681565b6101b261021e3660046111b9565b6108e7565b604080516080808201835285015181528235602080830182905283850135838501528401356060808401919091529251631860fdad60e21b815290926001600160a01b037f00000000000000000000000000000000000000000000000000000000000000001691636183f6b4916102a2919087019085906004016111db565b602060405180830381865afa1580156102bf573d6000803e3d6000fd5b505050506040513d601f19601f820116820180604052508101906102e39190611218565b610300576040516303b2487b60e11b815260040160405180910390fd5b60208084013560009081526001909152604090205460ff16156103365760405163b115d85760e01b815260040160405180910390fd5b60208381013560009081526001918290526040808220805460ff19169093179092555481516390b5561d60e01b81529185013560048301526001600160a01b0316906390b5561d906024016020604051808303816000875af11580156103a0573d6000803e3d6000fd5b505050506040513d601f19601f820116820180604052508101906103c49190611241565b506103cf8486610a58565b606085810180516040805189516001600160a01b0390811682526020808c0151821681840152838c015182168385015294518116958201959095526080808b01519082015260a0808b01519082015260c0808b015162ffffff16908201529287013560e084015286810135610100840152519216917f77c79fadfed5458292460ed9525b3bd4ae17631324e690d2a6335bfa064c1400918190036101200190a25050505050565b6040805160808101825286815260208101869052808201849052606081018590529051631860fdad60e21b81528591906001600160a01b037f00000000000000000000000000000000000000000000000000000000000000001690636183f6b4906104e790869085906004016111db565b602060405180830381865afa158015610504573d6000803e3d6000fd5b505050506040513d601f19601f820116820180604052508101906105289190611218565b610545576040516303b2487b60e11b815260040160405180910390fd5b60008581526001602052604090205460ff16156105755760405163b115d85760e01b815260040160405180910390fd5b6000858152600160208190526040808320805460ff1916909217909155905490516390b5561d60e01b8152600481018690526001600160a01b03909116906390b5561d906024016020604051808303816000875af11580156105db573d6000803e3d6000fd5b505050506040513d601f19601f820116820180604052508101906105ff9190611241565b507fc54b7b972a001cce38614c224d129b4b04ee2b540e8fa858dae0eb93d8a137598786866040516106339392919061125a565b60405180910390a150505050505050565b6040805160808101825286815260208101869052808201849052606081018590529051631860fdad60e21b815260009186916001600160a01b037f00000000000000000000000000000000000000000000000000000000000000001690636183f6b4906106b790879085906004016111db565b602060405180830381865afa1580156106d4573d6000803e3d6000fd5b505050506040513d601f19601f820116820180604052508101906106f89190611218565b98975050505050505050565b6040805160808101825286815260208101869052808201849052606081018590529051631860fdad60e21b81528591906001600160a01b037f00000000000000000000000000000000000000000000000000000000000000001690636183f6b49061077590869085906004016111db565b602060405180830381865afa158015610792573d6000803e3d6000fd5b505050506040513d601f19601f820116820180604052508101906107b69190611218565b6107d3576040516303b2487b60e11b815260040160405180910390fd5b60008581526001602052604090205460ff16156108035760405163b115d85760e01b815260040160405180910390fd5b6000858152600160208190526040808320805460ff1916909217909155905490516390b5561d60e01b8152600481018690526001600160a01b03909116906390b5561d906024016020604051808303816000875af1158015610869573d6000803e3d6000fd5b505050506040513d601f19601f8201168201806040525081019061088d9190611241565b506108988888610c0e565b876001600160a01b03167f75e161b3e824b114fc1a33274bd7091918dd4e639cede50b78b15a4eea956a218887876040516108d59392919061125a565b60405180910390a25050505050505050565b60008083116109095760405163fe9ba5cd60e01b815260040160405180910390fd5b604080518082018252848152602081018490529051632b0aac7f60e11b815273__$75f79a42d9bcbdbb69ad79ebd80f556f39$__9163561558fe916109519190600401611270565b602060405180830381865af415801561096e573d6000803e3d6000fd5b505050506040513d601f19601f820116820180604052508101906109929190611241565b6000546040516390b5561d60e01b8152600481018390529192506001600160a01b0316906390b5561d906024016020604051808303816000875af11580156109de573d6000803e3d6000fd5b505050506040513d601f19601f82011682018060405250810190610a029190611241565b50610a0d3384610c46565b336001600160a01b03167f91ede45f04a37a7c170f5c1207df3b6bc748dc1e04ad5e917a241d0f52feada3848385604051610a4a9392919061125a565b60405180910390a292915050565b608081015160405163095ea7b360e01b815283916001600160a01b037f0000000000000000000000000000000000000000000000000000000000000000169163095ea7b391610aac918591906004016112a1565b6020604051808303816000875af1158015610acb573d6000803e3d6000fd5b505050506040513d601f19601f82011682018060405250810190610aef9190611218565b5060006040518061010001604052807f00000000000000000000000000000000000000000000000000000000000000006001600160a01b0316815260200184604001516001600160a01b031681526020018460c0015162ffffff16815260200184606001516001600160a01b0316815260200142603c610b6f91906112ba565b8152602001846080015181526020018460a00151815260200160006001600160a01b03168152509050816001600160a01b031663414bf389826040518263ffffffff1660e01b8152600401610bc491906112db565b6020604051808303816000875af1158015610be3573d6000803e3d6000fd5b505050506040513d601f19601f82011682018060405250810190610c079190611241565b5050505050565b610c426001600160a01b037f0000000000000000000000000000000000000000000000000000000000000000168383610c9a565b5050565b3415610c65576040516323c6a28760e21b815260040160405180910390fd5b610c426001600160a01b037f000000000000000000000000000000000000000000000000000000000000000016833084610cf5565b610cf08363a9059cbb60e01b8484604051602401610cb99291906112a1565b60408051601f198184030181529190526020810180516001600160e01b03166001600160e01b031990931692909217909152610d33565b505050565b6040516001600160a01b0380851660248301528316604482015260648101829052610d2d9085906323b872dd60e01b90608401610cb9565b50505050565b6000610d88826040518060400160405280602081526020017f5361666545524332303a206c6f772d6c6576656c2063616c6c206661696c6564815250856001600160a01b0316610e0d9092919063ffffffff16565b9050805160001480610da9575080806020019051810190610da99190611218565b610cf05760405162461bcd60e51b815260206004820152602a60248201527f5361666545524332303a204552433230206f7065726174696f6e20646964206e6044820152691bdd081cdd58d8d9595960b21b60648201526084015b60405180910390fd5b6060610e1c8484600085610e24565b949350505050565b606082471015610e855760405162461bcd60e51b815260206004820152602660248201527f416464726573733a20696e73756666696369656e742062616c616e636520666f6044820152651c8818d85b1b60d21b6064820152608401610e04565b600080866001600160a01b03168587604051610ea1919061137a565b60006040518083038185875af1925050503d8060008114610ede576040519150601f19603f3d011682016040523d82523d6000602084013e610ee3565b606091505b5091509150610ef487838387610eff565b979650505050505050565b60608315610f6e578251600003610f67576001600160a01b0385163b610f675760405162461bcd60e51b815260206004820152601d60248201527f416464726573733a2063616c6c20746f206e6f6e2d636f6e74726163740000006044820152606401610e04565b5081610e1c565b610e1c8383815115610f835781518083602001fd5b8060405162461bcd60e51b8152600401610e049190611396565b6001600160a01b03169052565b6001600160a01b0381168114610fbf57600080fd5b50565b8035610fcd81610faa565b919050565b803562ffffff81168114610fcd57600080fd5b60006103608284031215610ff857600080fd5b50919050565b600080600083850361046081121561101557600080fd5b60e081121561102357600080fd5b5060405160e081016001600160401b038111828210171561105457634e487b7160e01b600052604160045260246000fd5b60405261106085610fc2565b815261106e60208601610fc2565b602082015261107f60408601610fc2565b604082015261109060608601610fc2565b60608201526080858101359082015260a080860135908201526110b560c08601610fd2565b60c082015292506110c860e08501610fc2565b91506110d8856101008601610fe5565b90509250925092565b8061030081018310156110f357600080fd5b92915050565b6000806000806000610380868803121561111257600080fd5b8535945060208601359350604086013592506060860135915061113887608088016110e1565b90509295509295909350565b6000806000806000806103a0878903121561115e57600080fd5b863561116981610faa565b9550602087013594506040870135935060608701359250608087013591506111948860a089016110e1565b90509295509295509295565b6000602082840312156111b257600080fd5b5035919050565b600080604083850312156111cc57600080fd5b50508035926020909101359150565b610380810161030084833761030082018360005b600481101561120e5781518352602092830192909101906001016111ef565b5050509392505050565b60006020828403121561122a57600080fd5b8151801515811461123a57600080fd5b9392505050565b60006020828403121561125357600080fd5b5051919050565b9283526020830191909152604082015260600190565b60408101818360005b6002811015611298578151835260209283019290910190600101611279565b50505092915050565b6001600160a01b03929092168252602082015260400190565b808201808211156110f357634e487b7160e01b600052601160045260246000fd5b81516001600160a01b0390811682526020808401519091169082015260408083015162ffffff169082015260608083015161010083019161131e90840182610f9d565b506080830151608083015260a083015160a083015260c083015160c083015260e083015161134f60e0840182610f9d565b5092915050565b60005b83811015611371578181015183820152602001611359565b50506000910152565b6000825161138c818460208701611356565b9190910192915050565b60208152600082518060208401526113b5816040850160208701611356565b601f01601f1916919091016040019291505056fea26469706673582212206b6db48d3ae04d3ddf1533dbf2e66989a2480b130ac26c1784f2596345d919b864736f6c634300081c00336080604052348015600f57600080fd5b506106bc8061001f6000396000f3fe608060405234801561001057600080fd5b50600436106100a45760003560e01c8063081dc681146100a9578063367506ef146100dc5780635ca1e165146100e357806376a5cef3146100eb57806390b5561d1461010e57806390eeb02b14610121578063949d225d14610146578063a27154ba1461014f578063cccf7a8e14610157578063cd87a3b41461016a578063d455a79d14610172578063de8fa43114610192575b600080fd5b6100c96100b7366004610510565b60026020526000908152604090205481565b6040519081526020015b60405180910390f35b60206100c9565b6100c961019a565b6100fe6100f936600461053d565b6101ac565b60405190151581526020016100d3565b6100c961011c36600461053d565b610221565b6003546101319063ffffffff1681565b60405163ffffffff90911681526020016100d3565b6100c960015481565b610131602081565b6100fe61016536600461053d565b610343565b610131606481565b6100c961018036600461053d565b60006020819052908152604090205481565b6001546100c9565b60006101a7600154610381565b905090565b6000816000036101be57506000919050565b60035463ffffffff1660005b606463ffffffff821610156102175763ffffffff8216600090815260026020526040902054849003610200575060019392505050565b60646063830163ffffffff160691506001016101ca565b5060009392505050565b600154600090600160201b1161024a57604051633977650160e01b815260040160405180910390fd5b6001805460009081526020819052604081208490558154919061026c83610582565b919050555061027c600154610381565b6003805491925063ffffffff9091169060006102978361059b565b91906101000a81548163ffffffff021916908363ffffffff1602179055505080600260006064600360009054906101000a900463ffffffff166102da91906105c0565b63ffffffff168152602081019190915260400160002055600180547fcb249c8292372bd11f567786635483fca9e635030baafca55ff1a8940141d22191610320916105e8565b6040805191825260208201859052810183905260600160405180910390a1919050565b6000805b600154811015610378576000818152602081905260409020548390036103705750600192915050565b600101610347565b50600092915050565b60008160000361039357506000919050565b60006103a06001846105e8565b6000818152602081905260408120549192505b602063ffffffff821610156105085760006103cf600285610601565b6000036103e8576103e1846001610615565b90506103f6565b6103f36001856105e8565b90505b6000868210610406576000610416565b6000828152602081905260409020545b9050600080610426600288610601565b60000361043757508490508161043d565b50819050845b604080518082018252838152602081018390529051632b0aac7f60e11b815273__$75f79a42d9bcbdbb69ad79ebd80f556f39$__9163561558fe916104859190600401610628565b602060405180830381865af41580156104a2573d6000803e3d6000fd5b505050506040513d601f19601f820116820180604052508101906104c69190610659565b95506104d3600288610672565b965060018911156104f85760026104eb8a6001610615565b6104f59190610672565b98505b5050600190920191506103b39050565b509392505050565b60006020828403121561052257600080fd5b813563ffffffff8116811461053657600080fd5b9392505050565b60006020828403121561054f57600080fd5b5035919050565b634e487b7160e01b600052601260045260246000fd5b634e487b7160e01b600052601160045260246000fd5b6000600182016105945761059461056c565b5060010190565b600063ffffffff821663ffffffff81036105b7576105b761056c565b60010192915050565b600063ffffffff8316806105d6576105d6610556565b8063ffffffff84160691505092915050565b818103818111156105fb576105fb61056c565b92915050565b60008261061057610610610556565b500690565b808201808211156105fb576105fb61056c565b60408101818360005b6002811015610650578151835260209283019290910190600101610631565b50505092915050565b60006020828403121561066b57600080fd5b5051919050565b60008261068157610681610556565b50049056fea26469706673582212203ed4f54b5c3ac97ec16932b851c3884fd4ebd0fd8ffb40f2214c8a681a48654064736f6c634300081c0033",
  "linkReferences": {
    "poseidon-solidity/PoseidonT3.sol": {
      "PoseidonT3": [
        {
          "length": 20,
          "start": 2675
        },
        {
          "length": 20,
          "start": 6597
        }
      ]
    }
  },
  "deployedLinkReferences": {
    "poseidon-solidity/PoseidonT3.sol": {
      "PoseidonT3": [
        {
          "length": 20,
          "start": 2346
        }
      ]
    }
  }
}