{
  "_format": "hh-sol-artifact-1",
  "contractName": "Entrypoint",
  "sourceName": "src/Entrypoint.sol",
  "abi": [
    {
      "inputs": [
        {
          "internalType": "address",
          "name": "_owner",
          "type": "address"
        },
        {
          "internalType": "address",
          "name": "_swapRouterAddress",
          "type": "address"
        },
        {
          "internalType": "address",
          "name": "_feeWallet",
          "type": "address"
        }
      ],
      "stateMutability": "nonpayable",
      "type": "constructor"
    },
    {
      "inputs": [
        {
          "internalType": "uint256",
          "name": "nullifier",
          "type": "uint256"
        },
        {
          "internalType": "uint256",
          "name": "paidAmount",
          "type": "uint256"
        }
      ],
      "name": "FeeAlreadyPaid",
      "type": "error"
    },
    {
      "inputs": [],
      "name": "InvalidDepositAmount",
      "type": "error"
    },
    {
      "inputs": [],
      "name": "InvalidFeeAmount",
      "type": "error"
    },
    {
      "inputs": [],
      "name": "InvalidSwapAmount",
      "type": "error"
    },
    {
      "inputs": [],
      "name": "InvalidWithdrawalAmount",
      "type": "error"
    },
    {
      "inputs": [],
      "name": "InvalidZKProof",
      "type": "error"
    },
    {
      "inputs": [],
      "name": "NoFeesToWithdraw",
      "type": "error"
    },
    {
      "inputs": [],
      "name": "UnauthorizedFeeWithdrawal",
      "type": "error"
    },
    {
      "inputs": [],
      "name": "VaultAlreadyRegistered",
      "type": "error"
    },
    {
      "inputs": [],
      "name": "VaultNotFound",
      "type": "error"
    },
    {
      "inputs": [],
      "name": "ZeroAddress",
      "type": "error"
    },
    {
      "anonymous": false,
      "inputs": [
        {
          "indexed": true,
          "internalType": "address",
          "name": "asset",
          "type": "address"
        },
        {
          "indexed": false,
          "internalType": "uint256",
          "name": "executionPrice",
          "type": "uint256"
        },
        {
          "indexed": false,
          "internalType": "uint256",
          "name": "nullifier",
          "type": "uint256"
        },
        {
          "indexed": false,
          "internalType": "uint256",
          "name": "newCommitment",
          "type": "uint256"
        }
      ],
      "name": "ExecutionFeePaid",
      "type": "event"
    },
    {
      "anonymous": false,
      "inputs": [
        {
          "indexed": true,
          "internalType": "address",
          "name": "asset",
          "type": "address"
        },
        {
          "indexed": false,
          "internalType": "uint256",
          "name": "amount",
          "type": "uint256"
        },
        {
          "indexed": true,
          "internalType": "address",
          "name": "recipient",
          "type": "address"
        }
      ],
      "name": "FeesWithdrawn",
      "type": "event"
    },
    {
      "inputs": [],
      "name": "NATIVE_ASSET",
      "outputs": [
        {
          "internalType": "address",
          "name": "",
          "type": "address"
        }
      ],
      "stateMutability": "view",
      "type": "function"
    },
    {
      "inputs": [],
      "name": "WETH",
      "outputs": [
        {
          "internalType": "address",
          "name": "",
          "type": "address"
        }
      ],
      "stateMutability": "view",
      "type": "function"
    },
    {
      "inputs": [
        {
          "internalType": "address",
          "name": "_asset",
          "type": "address"
        },
        {
          "internalType": "uint256",
          "name": "_amount",
          "type": "uint256"
        },
        {
          "internalType": "uint256",
          "name": "_precommitment",
          "type": "uint256"
        }
      ],
      "name": "deposit",
      "outputs": [
        {
          "internalType": "uint256",
          "name": "_commitment",
          "type": "uint256"
        }
      ],
      "stateMutability": "payable",
      "type": "function"
    },
    {
      "inputs": [
        {
          "internalType": "uint256",
          "name": "nullifier",
          "type": "uint256"
        }
      ],
      "name": "feePayments",
      "outputs": [
        {
          "internalType": "uint256",
          "name": "executionPrice",
          "type": "uint256"
        }
      ],
      "stateMutability": "view",
      "type": "function"
    },
    {
      "inputs": [],
      "name": "feeWallet",
      "outputs": [
        {
          "internalType": "address",
          "name": "",
          "type": "address"
        }
      ],
      "stateMutability": "view",
      "type": "function"
    },
    {
      "inputs": [
        {
          "internalType": "address",
          "name": "asset",
          "type": "address"
        }
      ],
      "name": "getVault",
      "outputs": [
        {
          "internalType": "address",
          "name": "",
          "type": "address"
        }
      ],
      "stateMutability": "view",
      "type": "function"
    },
    {
      "inputs": [
        {
          "internalType": "address[]",
          "name": "assets",
          "type": "address[]"
        }
      ],
      "name": "initializeVaults",
      "outputs": [],
      "stateMutability": "nonpayable",
      "type": "function"
    },
    {
      "inputs": [],
      "name": "owner",
      "outputs": [
        {
          "internalType": "address",
          "name": "",
          "type": "address"
        }
      ],
      "stateMutability": "view",
      "type": "function"
    },
    {
      "inputs": [
        {
          "internalType": "address",
          "name": "_asset",
          "type": "address"
        },
        {
          "internalType": "uint256",
          "name": "_executionPrice",
          "type": "uint256"
        },
        {
          "internalType": "uint256",
          "name": "_amount",
          "type": "uint256"
        },
        {
          "internalType": "uint256",
          "name": "_stateRoot",
          "type": "uint256"
        },
        {
          "internalType": "uint256",
          "name": "_nullifier",
          "type": "uint256"
        },
        {
          "internalType": "uint256",
          "name": "_newCommitment",
          "type": "uint256"
        },
        {
          "internalType": "uint256[24]",
          "name": "_proof",
          "type": "uint256[24]"
        }
      ],
      "name": "payExecutionFee",
      "outputs": [],
      "stateMutability": "nonpayable",
      "type": "function"
    },
    {
      "inputs": [
        {
          "internalType": "address",
          "name": "_feeWallet",
          "type": "address"
        }
      ],
      "name": "setFeeWallet",
      "outputs": [],
      "stateMutability": "nonpayable",
      "type": "function"
    },
    {
      "inputs": [
        {
          "internalType": "address",
          "name": "_pool",
          "type": "address"
        },
        {
          "internalType": "address",
          "name": "_srcToken",
          "type": "address"
        },
        {
          "internalType": "address",
          "name": "_dstToken",
          "type": "address"
        },
        {
          "internalType": "address payable",
          "name": "_recipient",
          "type": "address"
        },
        {
          "internalType": "uint256",
          "name": "_amountIn",
          "type": "uint256"
        },
        {
          "internalType": "uint256",
          "name": "_minAmountOut",
          "type": "uint256"
        },
        {
          "internalType": "uint24",
          "name": "_fee",
          "type": "uint24"
        },
        {
          "components": [
            {
              "internalType": "uint256",
              "name": "stateRoot",
              "type": "uint256"
            },
            {
              "internalType": "uint256",
              "name": "nullifier",
              "type": "uint256"
            },
            {
              "internalType": "uint256",
              "name": "newCommitment",
              "type": "uint256"
            },
            {
              "internalType": "uint256[24]",
              "name": "proof",
              "type": "uint256[24]"
            }
          ],
          "internalType": "struct IVault.ZKProof",
          "name": "_zkProof",
          "type": "tuple"
        }
      ],
      "name": "swap",
      "outputs": [],
      "stateMutability": "nonpayable",
      "type": "function"
    },
    {
      "inputs": [],
      "name": "swapRouter",
      "outputs": [
        {
          "internalType": "address",
          "name": "",
          "type": "address"
        }
      ],
      "stateMutability": "view",
      "type": "function"
    },
    {
      "inputs": [
        {
          "internalType": "address",
          "name": "asset",
          "type": "address"
        }
      ],
      "name": "totalFeesCollected",
      "outputs": [
        {
          "internalType": "uint256",
          "name": "totalFees",
          "type": "uint256"
        }
      ],
      "stateMutability": "view",
      "type": "function"
    },
    {
      "inputs": [
        {
          "internalType": "address",
          "name": "_asset",
          "type": "address"
        },
        {
          "internalType": "uint256",
          "name": "_amount",
          "type": "uint256"
        },
        {
          "internalType": "uint256",
          "name": "_stateRoot",
          "type": "uint256"
        },
        {
          "internalType": "uint256",
          "name": "_nullifier",
          "type": "uint256"
        },
        {
          "internalType": "uint256",
          "name": "_newCommitment",
          "type": "uint256"
        },
        {
          "internalType": "uint256[24]",
          "name": "_proof",
          "type": "uint256[24]"
        }
      ],
      "name": "verify",
      "outputs": [
        {
          "internalType": "bool",
          "name": "",
          "type": "bool"
        }
      ],
      "stateMutability": "view",
      "type": "function"
    },
    {
      "inputs": [
        {
          "internalType": "address",
          "name": "_asset",
          "type": "address"
        },
        {
          "internalType": "address",
          "name": "_recipient",
          "type": "address"
        },
        {
          "internalType": "uint256",
          "name": "_amount",
          "type": "uint256"
        },
        {
          "internalType": "uint256",
          "name": "_stateRoot",
          "type": "uint256"
        },
        {
          "internalType": "uint256",
          "name": "_nullifier",
          "type": "uint256"
        },
        {
          "internalType": "uint256",
          "name": "_newCommitment",
          "type": "uint256"
        },
        {
          "internalType": "uint256[24]",
          "name": "_proof",
          "type": "uint256[24]"
        }
      ],
      "name": "withdraw",
      "outputs": [],
      "stateMutability": "nonpayable",
      "type": "function"
    },
    {
      "inputs": [
        {
          "internalType": "address",
          "name": "_asset",
          "type": "address"
        }
      ],
      "name": "withdrawFees",
      "outputs": [],
      "stateMutability": "nonpayable",
      "type": "function"
    }
  ],
  "bytecode": "0x60c060405234801561001057600080fd5b5060405161626338038061626383398101604081905261002f9161010f565b6001600160a01b038316156100445782610046565b335b600180546001600160a01b0319166001600160a01b0392909216919091179055604051610072906100e6565b604051809103906000f08015801561008e573d6000803e3d6000fd5b506001600160a01b0390811660805282811660a0528116156100b057806100bd565b6001546001600160a01b03165b600280546001600160a01b0319166001600160a01b039290921691909117905550610152915050565b61178980614ada83390190565b80516001600160a01b038116811461010a57600080fd5b919050565b60008060006060848603121561012457600080fd5b61012d846100f3565b925061013b602085016100f3565b9150610149604085016100f3565b90509250925092565b60805160a051614955610185600039600081816102ed0152610a710152600081816107ea015261084501526149556000f3fe6080604052600436106100c35760003560e01c80630eb9af38146100c85780630efe6a8b1461011e578063164e68de1461013f5780633749a2ac14610161578063380fc4ef146101815780634fe2e5c3146101a15780635f6f59de146101ce57806388a40eed146101ee5780638da5cb5b1461021b57806390d49b9d1461023b578063a1483b091461025b578063ad5c46481461028b578063bf53253b146102b3578063c31c9c07146102db578063e0a7de001461030f578063f25f4b561461032f575b600080fd5b3480156100d457600080fd5b506101016100e3366004610fc9565b6001600160a01b039081166000908152602081905260409020541690565b6040516001600160a01b0390911681526020015b60405180910390f35b61013161012c366004610fed565b61034f565b604051908152602001610115565b34801561014b57600080fd5b5061015f61015a366004610fc9565b6105f5565b005b34801561016d57600080fd5b5061015f61017c366004611038565b610790565b34801561018d57600080fd5b5061015f61019c366004611107565b6108d1565b3480156101ad57600080fd5b506101316101bc3660046111af565b60046020526000908152604090205481565b3480156101da57600080fd5b5061015f6101e93660046111e0565b610adb565b3480156101fa57600080fd5b50610131610209366004610fc9565b60036020526000908152604090205481565b34801561022757600080fd5b50600154610101906001600160a01b031681565b34801561024757600080fd5b5061015f610256366004610fc9565b610bad565b34801561026757600080fd5b5061027b610276366004611250565b610c66565b6040519015158152602001610115565b34801561029757600080fd5b5061010173fff9976782d46cc05630d1f6ebab18b2324d6b1481565b3480156102bf57600080fd5b5061010173eeeeeeeeeeeeeeeeeeeeeeeeeeeeeeeeeeeeeeee81565b3480156102e757600080fd5b506101017f000000000000000000000000000000000000000000000000000000000000000081565b34801561031b57600080fd5b5061015f61032a3660046112ac565b610d3b565b34801561033b57600080fd5b50600254610101906001600160a01b031681565b6001600160a01b0380841660009081526020819052604081205490918591168061038c5760405163dee790fb60e01b815260040160405180910390fd5b6001600160a01b038087166000818152602081905260409020549091169073eeeeeeeeeeeeeeeeeeeeeeeeeeeeeeeeeeeeeeed190161046157600034116103e65760405163fe9ba5cd60e01b815260040160405180910390fd5b604051631c57762b60e31b81523460048201819052602482018790526001600160a01b0383169163e2bbb158919060440160206040518083038185885af1158015610435573d6000803e3d6000fd5b50505050506040513d601f19601f8201168201806040525081019061045a9190611305565b93506105eb565b85158061046e5750600034115b1561048c5760405163fe9ba5cd60e01b815260040160405180910390fd5b6040516323b872dd60e01b8152336004820152306024820152604481018790526001600160a01b038816906323b872dd906064016020604051808303816000875af11580156104df573d6000803e3d6000fd5b505050506040513d601f19601f82011682018060405250810190610503919061131e565b5060405163095ea7b360e01b81526001600160a01b0388169063095ea7b3906105329084908a90600401611340565b6020604051808303816000875af1158015610551573d6000803e3d6000fd5b505050506040513d601f19601f82011682018060405250810190610575919061131e565b50604051631c57762b60e31b815260048101879052602481018690526001600160a01b0382169063e2bbb158906044016020604051808303816000875af11580156105c4573d6000803e3d6000fd5b505050506040513d601f19601f820116820180604052508101906105e89190611305565b93505b5050509392505050565b6002546001600160a01b031633146106205760405163c25207b360e01b815260040160405180910390fd5b6001600160a01b0381166000908152600360205260408120549081900361065a57604051630d00db4d60e31b815260040160405180910390fd5b6001600160a01b03821660008181526003602052604081205573eeeeeeeeeeeeeeeeeeeeeeeeeeeeeeeeeeeeeeed19016106ce576002546040516001600160a01b039091169082156108fc029083906000818181858888f193505050501580156106c8573d6000803e3d6000fd5b50610747565b60025460405163a9059cbb60e01b81526001600160a01b038481169263a9059cbb9261070292909116908590600401611340565b6020604051808303816000875af1158015610721573d6000803e3d6000fd5b505050506040513d601f19601f82011682018060405250810190610745919061131e565b505b6002546040518281526001600160a01b03918216918416907f87044da2612407bc001bb0985725dcc651a0dc71eaabfd1d7e8617ca85a8c19c9060200160405180910390a35050565b60005b81518110156108cd5760008282815181106107b0576107b0611359565b6020026020010151905073eeeeeeeeeeeeeeeeeeeeeeeeeeeeeeeeeeeeeeee6001600160a01b0316816001600160a01b03161461084257807f000000000000000000000000000000000000000000000000000000000000000060405161081590610f87565b61082092919061136f565b604051809103906000f08015801561083c573d6000803e3d6000fd5b50610899565b807f000000000000000000000000000000000000000000000000000000000000000060405161087090610f94565b61087b92919061136f565b604051809103906000f080158015610897573d6000803e3d6000fd5b505b6001600160a01b03918216600090815260208190526040902080546001600160a01b03191691909216179055600101610793565b5050565b6001600160a01b038088166000908152602081905260409020548891168061090c5760405163dee790fb60e01b815260040160405180910390fd5b6001600160a01b03808a1660009081526020819052604090205416866109455760405163e346d81d60e01b815260040160405180910390fd5b60008562ffffff161161096a5760405162a4671960e71b815260040160405180910390fd5b6001600160a01b0388166109915760405163d92e233d60e01b815260040160405180910390fd5b73eeeeeeeeeeeeeeeeeeeeeeeeeeeeeeeeeeeeeeed196001600160a01b038b16016109ce5773fff9976782d46cc05630d1f6ebab18b2324d6b1499505b73eeeeeeeeeeeeeeeeeeeeeeeeeeeeeeeeeeeeeeed196001600160a01b038a1601610a0b5773fff9976782d46cc05630d1f6ebab18b2324d6b1498505b6040805160e0810182526001600160a01b03808e1682528c811660208301528b8116828401528a81166060830152608082018a905260a0820189905262ffffff881660c08301529151636208d95360e01b81529091831690636208d95390610a9b9084907f0000000000000000000000000000000000000000000000000000000000000000908a906004016113b1565b600060405180830381600087803b158015610ab557600080fd5b505af1158015610ac9573d6000803e3d6000fd5b50505050505050505050505050505050565b6001600160a01b038088166000908152602081905260409020541685610b1457604051639abc749160e01b815260040160405180910390fd5b6001600160a01b038716610b3b5760405163d92e233d60e01b815260040160405180910390fd5b6040516389b97d0960e01b81526001600160a01b038216906389b97d0990610b71908a908a908a908a908a908a90600401611429565b600060405180830381600087803b158015610b8b57600080fd5b505af1158015610b9f573d6000803e3d6000fd5b505050505050505050505050565b6001546001600160a01b03163314610bf95760405162461bcd60e51b815260206004820152600a60248201526927b7363c9037bbb732b960b11b60448201526064015b60405180910390fd5b6001600160a01b038116610c445760405162461bcd60e51b8152602060048201526012602482015271125b9d985b1a5908199959481dd85b1b195d60721b6044820152606401610bf0565b600280546001600160a01b0319166001600160a01b0392909216919091179055565b6001600160a01b03808716600090815260208190526040812054909188911680610ca35760405163dee790fb60e01b815260040160405180910390fd5b6001600160a01b03808a1660009081526020819052604090819020549051634375021b60e11b815291169081906386ea043690610cec908c908c908c908c908c9060040161146a565b602060405180830381865afa158015610d09573d6000803e3d6000fd5b505050506040513d601f19601f82011682018060405250810190610d2d919061131e565b9a9950505050505050505050565b6001600160a01b0380881660009081526020819052604090205488911680610d765760405163dee790fb60e01b815260040160405180910390fd5b60008811610d975760405163e346d81d60e01b815260040160405180910390fd5b6001600160a01b03808a166000908152602081815260408083205489845260049092529091205491169015610dfb576000868152600460208190526040918290205491516357a72ccd60e11b81529081018890526024810191909152604401610bf0565b604051634375021b60e11b81526001600160a01b038216906386ea043690610e2f908b908b908b908b908b9060040161146a565b602060405180830381865afa158015610e4c573d6000803e3d6000fd5b505050506040513d601f19601f82011682018060405250810190610e70919061131e565b610e8d576040516303b2487b60e11b815260040160405180910390fd5b60008681526004602090815260408083208c90556001600160a01b038d1683526003909152812080548b9290610ec490849061149b565b9091555050604051631bd96eeb60e21b81526001600160a01b03821690636f65bbac90610efd908b908b908b908b908b9060040161146a565b600060405180830381600087803b158015610f1757600080fd5b505af1158015610f2b573d6000803e3d6000fd5b5050604080518c8152602081018a90529081018890526001600160a01b038d1692507ffb8559e2ca8890e9f80c8d0c9220686d37e8b9b1a4a0b118e3ffe35c61e9d9b2915060600160405180910390a250505050505050505050565b611c23806114bd83390190565b611840806130e083390190565b6001600160a01b0381168114610fb657600080fd5b50565b8035610fc481610fa1565b919050565b600060208284031215610fdb57600080fd5b8135610fe681610fa1565b9392505050565b60008060006060848603121561100257600080fd5b833561100d81610fa1565b95602085013595506040909401359392505050565b634e487b7160e01b600052604160045260246000fd5b60006020828403121561104a57600080fd5b81356001600160401b0381111561106057600080fd5b8201601f8101841361107157600080fd5b80356001600160401b0381111561108a5761108a611022565b604051600582901b90603f8201601f191681016001600160401b03811182821017156110b8576110b8611022565b6040529182526020818401810192908101878411156110d657600080fd5b6020850194505b838510156110fc576110ee85610fb9565b8152602094850194016110dd565b509695505050505050565b600080600080600080600080888a0361044081121561112557600080fd5b893561113081610fa1565b985060208a013561114081610fa1565b975060408a013561115081610fa1565b965060608a013561116081610fa1565b955060808a0135945060a08a0135935060c08a013562ffffff8116811461118657600080fd5b925061036060df198201121561119b57600080fd5b5060e0890190509295985092959890939650565b6000602082840312156111c157600080fd5b5035919050565b8061030081018310156111da57600080fd5b92915050565b60008060008060008060006103c0888a0312156111fc57600080fd5b873561120781610fa1565b9650602088013561121781610fa1565b955060408801359450606088013593506080880135925060a088013591506112428960c08a016111c8565b905092959891949750929550565b6000806000806000806103a0878903121561126a57600080fd5b863561127581610fa1565b9550602087013594506040870135935060608701359250608087013591506112a08860a089016111c8565b90509295509295509295565b60008060008060008060006103c0888a0312156112c857600080fd5b87356112d381610fa1565b96506020880135955060408801359450606088013593506080880135925060a088013591506112428960c08a016111c8565b60006020828403121561131757600080fd5b5051919050565b60006020828403121561133057600080fd5b81518015158114610fe657600080fd5b6001600160a01b03929092168252602082015260400190565b634e487b7160e01b600052603260045260246000fd5b6001600160a01b0392831681529116602082015260400190565b8035825260208082013590830152604080820135908301526103006060808301908401375050565b83516001600160a01b0390811682526020808601518216908301526040808601518216908301526060808601518216908301526080808601519083015260a0808601519083015260c08086015162ffffff1690830152831660e08201526104608101611421610100830184611389565b949350505050565b6001600160a01b0387168152602081018690526040810185905260608101849052608081018390526103a081016103008360a0840137979650505050505050565b6000610380820190508682528560208301528460408301528360608301526103008360808401379695505050505050565b808201808211156111da57634e487b7160e01b600052601160045260246000fdfe60c060405234801561001057600080fd5b50604051611c23380380611c2383398101604081905261002f916100bb565b6001600160a01b0382166080526040518290829061004c90610092565b604051809103906000f080158015610068573d6000803e3d6000fd5b50600080546001600160a01b0319166001600160a01b039283161790551660a052506100ee915050565b6106db8061154883390190565b80516001600160a01b03811681146100b657600080fd5b919050565b600080604083850312156100ce57600080fd5b6100d78361009f565b91506100e56020840161009f565b90509250929050565b60805160a0516113ff61014960003960008181610269015281816104b001528181610680015261073e01526000818160980152818160e601528181610a7601528181610b0001528181610c1b0152610c7201526113ff6000f3fe6080604052600436106100815760003560e01c806338d52e0f146100865780635c222bad146100d75780636208d9531461010a5780636f65bbac1461012c57806386ea04361461014c57806389b97d091461017c578063affed0e01461019c578063bb7df052146101c0578063d21e82ab146101e0578063e2bbb15814610210575b600080fd5b34801561009257600080fd5b506100ba7f000000000000000000000000000000000000000000000000000000000000000081565b6040516001600160a01b0390911681526020015b60405180910390f35b3480156100e357600080fd5b507f00000000000000000000000000000000000000000000000000000000000000006100ba565b34801561011657600080fd5b5061012a610125366004610ffe565b610223565b005b34801561013857600080fd5b5061012a6101473660046110f9565b610476565b34801561015857600080fd5b5061016c6101673660046110f9565b610644565b60405190151581526020016100ce565b34801561018857600080fd5b5061012a610197366004611144565b610704565b3480156101a857600080fd5b506101b260025481565b6040519081526020016100ce565b3480156101cc57600080fd5b506000546100ba906001600160a01b031681565b3480156101ec57600080fd5b5061016c6101fb3660046111a0565b60016020526000908152604090205460ff1681565b6101b261021e3660046111b9565b6108e7565b604080516080808201835285015181528235602080830182905283850135838501528401356060808401919091529251631860fdad60e21b815290926001600160a01b037f00000000000000000000000000000000000000000000000000000000000000001691636183f6b4916102a2919087019085906004016111db565b602060405180830381865afa1580156102bf573d6000803e3d6000fd5b505050506040513d601f19601f820116820180604052508101906102e39190611218565b610300576040516303b2487b60e11b815260040160405180910390fd5b60208084013560009081526001909152604090205460ff16156103365760405163b115d85760e01b815260040160405180910390fd5b60208381013560009081526001918290526040808220805460ff19169093179092555481516390b5561d60e01b81529185013560048301526001600160a01b0316906390b5561d906024016020604051808303816000875af11580156103a0573d6000803e3d6000fd5b505050506040513d601f19601f820116820180604052508101906103c49190611241565b506103cf8486610a58565b606085810180516040805189516001600160a01b0390811682526020808c0151821681840152838c015182168385015294518116958201959095526080808b01519082015260a0808b01519082015260c0808b015162ffffff16908201529287013560e084015286810135610100840152519216917f77c79fadfed5458292460ed9525b3bd4ae17631324e690d2a6335bfa064c1400918190036101200190a25050505050565b6040805160808101825286815260208101869052808201849052606081018590529051631860fdad60e21b81528591906001600160a01b037f00000000000000000000000000000000000000000000000000000000000000001690636183f6b4906104e790869085906004016111db565b602060405180830381865afa158015610504573d6000803e3d6000fd5b505050506040513d601f19601f820116820180604052508101906105289190611218565b610545576040516303b2487b60e11b815260040160405180910390fd5b60008581526001602052604090205460ff16156105755760405163b115d85760e01b815260040160405180910390fd5b6000858152600160208190526040808320805460ff1916909217909155905490516390b5561d60e01b8152600481018690526001600160a01b03909116906390b5561d906024016020604051808303816000875af11580156105db573d6000803e3d6000fd5b505050506040513d601f19601f820116820180604052508101906105ff9190611241565b507fc54b7b972a001cce38614c224d129b4b04ee2b540e8fa858dae0eb93d8a137598786866040516106339392919061125a565b60405180910390a150505050505050565b6040805160808101825286815260208101869052808201849052606081018590529051631860fdad60e21b815260009186916001600160a01b037f00000000000000000000000000000000000000000000000000000000000000001690636183f6b4906106b790879085906004016111db565b602060405180830381865afa1580156106d4573d6000803e3d6000fd5b505050506040513d601f19601f820116820180604052508101906106f89190611218565b98975050505050505050565b6040805160808101825286815260208101869052808201849052606081018590529051631860fdad60e21b81528591906001600160a01b037f00000000000000000000000000000000000000000000000000000000000000001690636183f6b49061077590869085906004016111db565b602060405180830381865afa158015610792573d6000803e3d6000fd5b505050506040513d601f19601f820116820180604052508101906107b69190611218565b6107d3576040516303b2487b60e11b815260040160405180910390fd5b60008581526001602052604090205460ff16156108035760405163b115d85760e01b815260040160405180910390fd5b6000858152600160208190526040808320805460ff1916909217909155905490516390b5561d60e01b8152600481018690526001600160a01b03909116906390b5561d906024016020604051808303816000875af1158015610869573d6000803e3d6000fd5b505050506040513d601f19601f8201168201806040525081019061088d9190611241565b506108988888610c0e565b876001600160a01b03167f75e161b3e824b114fc1a33274bd7091918dd4e639cede50b78b15a4eea956a218887876040516108d59392919061125a565b60405180910390a25050505050505050565b60008083116109095760405163fe9ba5cd60e01b815260040160405180910390fd5b604080518082018252848152602081018490529051632b0aac7f60e11b815273__$75f79a42d9bcbdbb69ad79ebd80f556f39$__9163561558fe916109519190600401611270565b602060405180830381865af415801561096e573d6000803e3d6000fd5b505050506040513d601f19601f820116820180604052508101906109929190611241565b6000546040516390b5561d60e01b8152600481018390529192506001600160a01b0316906390b5561d906024016020604051808303816000875af11580156109de573d6000803e3d6000fd5b505050506040513d601f19601f82011682018060405250810190610a029190611241565b50610a0d3384610c46565b336001600160a01b03167f91ede45f04a37a7c170f5c1207df3b6bc748dc1e04ad5e917a241d0f52feada3848385604051610a4a9392919061125a565b60405180910390a292915050565b608081015160405163095ea7b360e01b815283916001600160a01b037f0000000000000000000000000000000000000000000000000000000000000000169163095ea7b391610aac918591906004016112a1565b6020604051808303816000875af1158015610acb573d6000803e3d6000fd5b505050506040513d601f19601f82011682018060405250810190610aef9190611218565b5060006040518061010001604052807f00000000000000000000000000000000000000000000000000000000000000006001600160a01b0316815260200184604001516001600160a01b031681526020018460c0015162ffffff16815260200184606001516001600160a01b0316815260200142603c610b6f91906112ba565b8152602001846080015181526020018460a00151815260200160006001600160a01b03168152509050816001600160a01b031663414bf389826040518263ffffffff1660e01b8152600401610bc491906112db565b6020604051808303816000875af1158015610be3573d6000803e3d6000fd5b505050506040513d601f19601f82011682018060405250810190610c079190611241565b5050505050565b610c426001600160a01b037f0000000000000000000000000000000000000000000000000000000000000000168383610c9a565b5050565b3415610c65576040516323c6a28760e21b815260040160405180910390fd5b610c426001600160a01b037f000000000000000000000000000000000000000000000000000000000000000016833084610cf5565b610cf08363a9059cbb60e01b8484604051602401610cb99291906112a1565b60408051601f198184030181529190526020810180516001600160e01b03166001600160e01b031990931692909217909152610d33565b505050565b6040516001600160a01b0380851660248301528316604482015260648101829052610d2d9085906323b872dd60e01b90608401610cb9565b50505050565b6000610d88826040518060400160405280602081526020017f5361666545524332303a206c6f772d6c6576656c2063616c6c206661696c6564815250856001600160a01b0316610e0d9092919063ffffffff16565b9050805160001480610da9575080806020019051810190610da99190611218565b610cf05760405162461bcd60e51b815260206004820152602a60248201527f5361666545524332303a204552433230206f7065726174696f6e20646964206e6044820152691bdd081cdd58d8d9595960b21b60648201526084015b60405180910390fd5b6060610e1c8484600085610e24565b949350505050565b606082471015610e855760405162461bcd60e51b815260206004820152602660248201527f416464726573733a20696e73756666696369656e742062616c616e636520666f6044820152651c8818d85b1b60d21b6064820152608401610e04565b600080866001600160a01b03168587604051610ea1919061137a565b60006040518083038185875af1925050503d8060008114610ede576040519150601f19603f3d011682016040523d82523d6000602084013e610ee3565b606091505b5091509150610ef487838387610eff565b979650505050505050565b60608315610f6e578251600003610f67576001600160a01b0385163b610f675760405162461bcd60e51b815260206004820152601d60248201527f416464726573733a2063616c6c20746f206e6f6e2d636f6e74726163740000006044820152606401610e04565b5081610e1c565b610e1c8383815115610f835781518083602001fd5b8060405162461bcd60e51b8152600401610e049190611396565b6001600160a01b03169052565b6001600160a01b0381168114610fbf57600080fd5b50565b8035610fcd81610faa565b919050565b803562ffffff81168114610fcd57600080fd5b60006103608284031215610ff857600080fd5b50919050565b600080600083850361046081121561101557600080fd5b60e081121561102357600080fd5b5060405160e081016001600160401b038111828210171561105457634e487b7160e01b600052604160045260246000fd5b60405261106085610fc2565b815261106e60208601610fc2565b602082015261107f60408601610fc2565b604082015261109060608601610fc2565b60608201526080858101359082015260a080860135908201526110b560c08601610fd2565b60c082015292506110c860e08501610fc2565b91506110d8856101008601610fe5565b90509250925092565b8061030081018310156110f357600080fd5b92915050565b6000806000806000610380868803121561111257600080fd5b8535945060208601359350604086013592506060860135915061113887608088016110e1565b90509295509295909350565b6000806000806000806103a0878903121561115e57600080fd5b863561116981610faa565b9550602087013594506040870135935060608701359250608087013591506111948860a089016110e1565b90509295509295509295565b6000602082840312156111b257600080fd5b5035919050565b600080604083850312156111cc57600080fd5b50508035926020909101359150565b610380810161030084833761030082018360005b600481101561120e5781518352602092830192909101906001016111ef565b5050509392505050565b60006020828403121561122a57600080fd5b8151801515811461123a57600080fd5b9392505050565b60006020828403121561125357600080fd5b5051919050565b9283526020830191909152604082015260600190565b60408101818360005b6002811015611298578151835260209283019290910190600101611279565b50505092915050565b6001600160a01b03929092168252602082015260400190565b808201808211156110f357634e487b7160e01b600052601160045260246000fd5b81516001600160a01b0390811682526020808401519091169082015260408083015162ffffff169082015260608083015161010083019161131e90840182610f9d565b506080830151608083015260a083015160a083015260c083015160c083015260e083015161134f60e0840182610f9d565b5092915050565b60005b83811015611371578181015183820152602001611359565b50506000910152565b6000825161138c818460208701611356565b9190910192915050565b60208152600082518060208401526113b5816040850160208701611356565b601f01601f1916919091016040019291505056fea26469706673582212206b6db48d3ae04d3ddf1533dbf2e66989a2480b130ac26c1784f2596345d919b864736f6c634300081c00336080604052348015600f57600080fd5b506106bc8061001f6000396000f3fe608060405234801561001057600080fd5b50600436106100a45760003560e01c8063081dc681146100a9578063367506ef146100dc5780635ca1e165146100e357806376a5cef3146100eb57806390b5561d1461010e57806390eeb02b14610121578063949d225d14610146578063a27154ba1461014f578063cccf7a8e14610157578063cd87a3b41461016a578063d455a79d14610172578063de8fa43114610192575b600080fd5b6100c96100b7366004610510565b60026020526000908152604090205481565b6040519081526020015b60405180910390f35b60206100c9565b6100c961019a565b6100fe6100f936600461053d565b6101ac565b60405190151581526020016100d3565b6100c961011c36600461053d565b610221565b6003546101319063ffffffff1681565b60405163ffffffff90911681526020016100d3565b6100c960015481565b610131602081565b6100fe61016536600461053d565b610343565b610131606481565b6100c961018036600461053d565b60006020819052908152604090205481565b6001546100c9565b60006101a7600154610381565b905090565b6000816000036101be57506000919050565b60035463ffffffff1660005b606463ffffffff821610156102175763ffffffff8216600090815260026020526040902054849003610200575060019392505050565b60646063830163ffffffff160691506001016101ca565b5060009392505050565b600154600090600160201b1161024a57604051633977650160e01b815260040160405180910390fd5b6001805460009081526020819052604081208490558154919061026c83610582565b919050555061027c600154610381565b6003805491925063ffffffff9091169060006102978361059b565b91906101000a81548163ffffffff021916908363ffffffff1602179055505080600260006064600360009054906101000a900463ffffffff166102da91906105c0565b63ffffffff168152602081019190915260400160002055600180547fcb249c8292372bd11f567786635483fca9e635030baafca55ff1a8940141d22191610320916105e8565b6040805191825260208201859052810183905260600160405180910390a1919050565b6000805b600154811015610378576000818152602081905260409020548390036103705750600192915050565b600101610347565b50600092915050565b60008160000361039357506000919050565b60006103a06001846105e8565b6000818152602081905260408120549192505b602063ffffffff821610156105085760006103cf600285610601565b6000036103e8576103e1846001610615565b90506103f6565b6103f36001856105e8565b90505b6000868210610406576000610416565b6000828152602081905260409020545b9050600080610426600288610601565b60000361043757508490508161043d565b50819050845b604080518082018252838152602081018390529051632b0aac7f60e11b815273__$75f79a42d9bcbdbb69ad79ebd80f556f39$__9163561558fe916104859190600401610628565b602060405180830381865af41580156104a2573d6000803e3d6000fd5b505050506040513d601f19601f820116820180604052508101906104c69190610659565b95506104d3600288610672565b965060018911156104f85760026104eb8a6001610615565b6104f59190610672565b98505b5050600190920191506103b39050565b509392505050565b60006020828403121561052257600080fd5b813563ffffffff8116811461053657600080fd5b9392505050565b60006020828403121561054f57600080fd5b5035919050565b634e487b7160e01b600052601260045260246000fd5b634e487b7160e01b600052601160045260246000fd5b6000600182016105945761059461056c565b5060010190565b600063ffffffff821663ffffffff81036105b7576105b761056c565b60010192915050565b600063ffffffff8316806105d6576105d6610556565b8063ffffffff84160691505092915050565b818103818111156105fb576105fb61056c565b92915050565b60008261061057610610610556565b500690565b808201808211156105fb576105fb61056c565b60408101818360005b6002811015610650578151835260209283019290910190600101610631565b50505092915050565b60006020828403121561066b57600080fd5b5051919050565b60008261068157610681610556565b50049056fea26469706673582212203ed4f54b5c3ac97ec16932b851c3884fd4ebd0fd8ffb40f2214c8a681a48654064736f6c634300081c003360c060405234801561001057600080fd5b5060405161184038038061184083398101604081905261002f916100bb565b6001600160a01b0382166080526040518290829061004c90610092565b604051809103906000f080158015610068573d6000803e3d6000fd5b50600080546001600160a01b0319166001600160a01b039283161790551660a052506100ee915050565b6106db8061116583390190565b80516001600160a01b03811681146100b657600080fd5b919050565b600080604083850312156100ce57600080fd5b6100d78361009f565b91506100e56020840161009f565b90509250929050565b60805160a05161103861012d6000396000818161029c015281816104e3015281816106b3015261077101526000818160a3015260f101526110386000f3fe60806040526004361061008c5760003560e01c806338d52e0f146100915780635c222bad146100e25780636208d953146101155780636f65bbac1461013757806386ea04361461015757806389b97d0914610187578063ad5c4648146101a7578063affed0e0146101cf578063bb7df052146101f3578063d21e82ab14610213578063e2bbb15814610243575b600080fd5b34801561009d57600080fd5b506100c57f000000000000000000000000000000000000000000000000000000000000000081565b6040516001600160a01b0390911681526020015b60405180910390f35b3480156100ee57600080fd5b507f00000000000000000000000000000000000000000000000000000000000000006100c5565b34801561012157600080fd5b50610135610130366004610ca8565b610256565b005b34801561014357600080fd5b50610135610152366004610da3565b6104a9565b34801561016357600080fd5b50610177610172366004610da3565b610677565b60405190151581526020016100d9565b34801561019357600080fd5b506101356101a2366004610dee565b610737565b3480156101b357600080fd5b506100c573fff9976782d46cc05630d1f6ebab18b2324d6b1481565b3480156101db57600080fd5b506101e560025481565b6040519081526020016100d9565b3480156101ff57600080fd5b506000546100c5906001600160a01b031681565b34801561021f57600080fd5b5061017761022e366004610e4a565b60016020526000908152604090205460ff1681565b6101e5610251366004610e63565b61091a565b604080516080808201835285015181528235602080830182905283850135838501528401356060808401919091529251631860fdad60e21b815290926001600160a01b037f00000000000000000000000000000000000000000000000000000000000000001691636183f6b4916102d591908701908590600401610e85565b602060405180830381865afa1580156102f2573d6000803e3d6000fd5b505050506040513d601f19601f820116820180604052508101906103169190610ec2565b610333576040516303b2487b60e11b815260040160405180910390fd5b60208084013560009081526001909152604090205460ff16156103695760405163b115d85760e01b815260040160405180910390fd5b60208381013560009081526001918290526040808220805460ff19169093179092555481516390b5561d60e01b81529185013560048301526001600160a01b0316906390b5561d906024016020604051808303816000875af11580156103d3573d6000803e3d6000fd5b505050506040513d601f19601f820116820180604052508101906103f79190610eeb565b506104028486610a8b565b606085810180516040805189516001600160a01b0390811682526020808c0151821681840152838c015182168385015294518116958201959095526080808b01519082015260a0808b01519082015260c0808b015162ffffff16908201529287013560e084015286810135610100840152519216917f77c79fadfed5458292460ed9525b3bd4ae17631324e690d2a6335bfa064c1400918190036101200190a25050505050565b6040805160808101825286815260208101869052808201849052606081018590529051631860fdad60e21b81528591906001600160a01b037f00000000000000000000000000000000000000000000000000000000000000001690636183f6b49061051a9086908590600401610e85565b602060405180830381865afa158015610537573d6000803e3d6000fd5b505050506040513d601f19601f8201168201806040525081019061055b9190610ec2565b610578576040516303b2487b60e11b815260040160405180910390fd5b60008581526001602052604090205460ff16156105a85760405163b115d85760e01b815260040160405180910390fd5b6000858152600160208190526040808320805460ff1916909217909155905490516390b5561d60e01b8152600481018690526001600160a01b03909116906390b5561d906024016020604051808303816000875af115801561060e573d6000803e3d6000fd5b505050506040513d601f19601f820116820180604052508101906106329190610eeb565b507fc54b7b972a001cce38614c224d129b4b04ee2b540e8fa858dae0eb93d8a1375987868660405161066693929190610f04565b60405180910390a150505050505050565b6040805160808101825286815260208101869052808201849052606081018590529051631860fdad60e21b815260009186916001600160a01b037f00000000000000000000000000000000000000000000000000000000000000001690636183f6b4906106ea9087908590600401610e85565b602060405180830381865afa158015610707573d6000803e3d6000fd5b505050506040513d601f19601f8201168201806040525081019061072b9190610ec2565b98975050505050505050565b6040805160808101825286815260208101869052808201849052606081018590529051631860fdad60e21b81528591906001600160a01b037f00000000000000000000000000000000000000000000000000000000000000001690636183f6b4906107a89086908590600401610e85565b602060405180830381865afa1580156107c5573d6000803e3d6000fd5b505050506040513d601f19601f820116820180604052508101906107e99190610ec2565b610806576040516303b2487b60e11b815260040160405180910390fd5b60008581526001602052604090205460ff16156108365760405163b115d85760e01b815260040160405180910390fd5b6000858152600160208190526040808320805460ff1916909217909155905490516390b5561d60e01b8152600481018690526001600160a01b03909116906390b5561d906024016020604051808303816000875af115801561089c573d6000803e3d6000fd5b505050506040513d601f19601f820116820180604052508101906108c09190610eeb565b506108cb8888610baa565b876001600160a01b03167f75e161b3e824b114fc1a33274bd7091918dd4e639cede50b78b15a4eea956a2188878760405161090893929190610f04565b60405180910390a25050505050505050565b600080831161093c5760405163fe9ba5cd60e01b815260040160405180910390fd5b604080518082018252848152602081018490529051632b0aac7f60e11b815273__$75f79a42d9bcbdbb69ad79ebd80f556f39$__9163561558fe916109849190600401610f1a565b602060405180830381865af41580156109a1573d6000803e3d6000fd5b505050506040513d601f19601f820116820180604052508101906109c59190610eeb565b6000546040516390b5561d60e01b8152600481018390529192506001600160a01b0316906390b5561d906024016020604051808303816000875af1158015610a11573d6000803e3d6000fd5b505050506040513d601f19601f82011682018060405250810190610a359190610eeb565b50610a403384610c23565b336001600160a01b03167f91ede45f04a37a7c170f5c1207df3b6bc748dc1e04ad5e917a241d0f52feada3848385604051610a7d93929190610f04565b60405180910390a292915050565b6000829050600060405180610100016040528084602001516001600160a01b0316815260200184604001516001600160a01b031681526020018460c0015162ffffff16815260200184606001516001600160a01b0316815260200142603c610af39190610f4b565b8152608085018051602083015260a086015160408084019190915260006060909301929092525185519151632e53a76d60e01b81529293506001600160a01b03851692632e53a76d92610b609173fff9976782d46cc05630d1f6ebab18b2324d6b14908790600401610f6c565b60206040518083038185885af1158015610b7e573d6000803e3d6000fd5b50505050506040513d601f19601f82011682018060405250810190610ba39190610eeb565b5050505050565b6000826001600160a01b03168260405160006040518083038185875af1925050503d8060008114610bf7576040519150601f19603f3d011682016040523d82523d6000602084013e610bfc565b606091505b5050905080610c1e57604051633d2cec6f60e21b815260040160405180910390fd5b505050565b803414610c43576040516355e97b0d60e01b815260040160405180910390fd5b5050565b6001600160a01b03169052565b6001600160a01b0381168114610c6957600080fd5b50565b8035610c7781610c54565b919050565b803562ffffff81168114610c7757600080fd5b60006103608284031215610ca257600080fd5b50919050565b6000806000838503610460811215610cbf57600080fd5b60e0811215610ccd57600080fd5b5060405160e081016001600160401b0381118282101715610cfe57634e487b7160e01b600052604160045260246000fd5b604052610d0a85610c6c565b8152610d1860208601610c6c565b6020820152610d2960408601610c6c565b6040820152610d3a60608601610c6c565b60608201526080858101359082015260a08086013590820152610d5f60c08601610c7c565b60c08201529250610d7260e08501610c6c565b9150610d82856101008601610c8f565b90509250925092565b806103008101831015610d9d57600080fd5b92915050565b60008060008060006103808688031215610dbc57600080fd5b85359450602086013593506040860135925060608601359150610de28760808801610d8b565b90509295509295909350565b6000806000806000806103a08789031215610e0857600080fd5b8635610e1381610c54565b955060208701359450604087013593506060870135925060808701359150610e3e8860a08901610d8b565b90509295509295509295565b600060208284031215610e5c57600080fd5b5035919050565b60008060408385031215610e7657600080fd5b50508035926020909101359150565b610380810161030084833761030082018360005b6004811015610eb8578151835260209283019290910190600101610e99565b5050509392505050565b600060208284031215610ed457600080fd5b81518015158114610ee457600080fd5b9392505050565b600060208284031215610efd57600080fd5b5051919050565b9283526020830191909152604082015260600190565b60408101818360005b6002811015610f42578151835260209283019290910190600101610f23565b50505092915050565b80820180821115610d9d57634e487b7160e01b600052601160045260246000fd5b6001600160a01b03848116825283811660208084019190915283518216604080850191909152908401519091166060808401919091529083015162ffffff166080830152820151610140820190610fc660a0840182610c47565b50608083015160c083015260a083015160e083015260c083015161010083015260e0830151610ff9610120840182610c47565b5094935050505056fea26469706673582212208a664fd618ec3dc107e887dec2823a2986fdc3c5a9f841876ea02630f9bdd33964736f6c634300081c00336080604052348015600f57600080fd5b506106bc8061001f6000396000f3fe608060405234801561001057600080fd5b50600436106100a45760003560e01c8063081dc681146100a9578063367506ef146100dc5780635ca1e165146100e357806376a5cef3146100eb57806390b5561d1461010e57806390eeb02b14610121578063949d225d14610146578063a27154ba1461014f578063cccf7a8e14610157578063cd87a3b41461016a578063d455a79d14610172578063de8fa43114610192575b600080fd5b6100c96100b7366004610510565b60026020526000908152604090205481565b6040519081526020015b60405180910390f35b60206100c9565b6100c961019a565b6100fe6100f936600461053d565b6101ac565b60405190151581526020016100d3565b6100c961011c36600461053d565b610221565b6003546101319063ffffffff1681565b60405163ffffffff90911681526020016100d3565b6100c960015481565b610131602081565b6100fe61016536600461053d565b610343565b610131606481565b6100c961018036600461053d565b60006020819052908152604090205481565b6001546100c9565b60006101a7600154610381565b905090565b6000816000036101be57506000919050565b60035463ffffffff1660005b606463ffffffff821610156102175763ffffffff8216600090815260026020526040902054849003610200575060019392505050565b60646063830163ffffffff160691506001016101ca565b5060009392505050565b600154600090600160201b1161024a57604051633977650160e01b815260040160405180910390fd5b6001805460009081526020819052604081208490558154919061026c83610582565b919050555061027c600154610381565b6003805491925063ffffffff9091169060006102978361059b565b91906101000a81548163ffffffff021916908363ffffffff1602179055505080600260006064600360009054906101000a900463ffffffff166102da91906105c0565b63ffffffff168152602081019190915260400160002055600180547fcb249c8292372bd11f567786635483fca9e635030baafca55ff1a8940141d22191610320916105e8565b6040805191825260208201859052810183905260600160405180910390a1919050565b6000805b600154811015610378576000818152602081905260409020548390036103705750600192915050565b600101610347565b50600092915050565b60008160000361039357506000919050565b60006103a06001846105e8565b6000818152602081905260408120549192505b602063ffffffff821610156105085760006103cf600285610601565b6000036103e8576103e1846001610615565b90506103f6565b6103f36001856105e8565b90505b6000868210610406576000610416565b6000828152602081905260409020545b9050600080610426600288610601565b60000361043757508490508161043d565b50819050845b604080518082018252838152602081018390529051632b0aac7f60e11b815273__$75f79a42d9bcbdbb69ad79ebd80f556f39$__9163561558fe916104859190600401610628565b602060405180830381865af41580156104a2573d6000803e3d6000fd5b505050506040513d601f19601f820116820180604052508101906104c69190610659565b95506104d3600288610672565b965060018911156104f85760026104eb8a6001610615565b6104f59190610672565b98505b5050600190920191506103b39050565b509392505050565b60006020828403121561052257600080fd5b813563ffffffff8116811461053657600080fd5b9392505050565b60006020828403121561054f57600080fd5b5035919050565b634e487b7160e01b600052601260045260246000fd5b634e487b7160e01b600052601160045260246000fd5b6000600182016105945761059461056c565b5060010190565b600063ffffffff821663ffffffff81036105b7576105b761056c565b60010192915050565b600063ffffffff8316806105d6576105d6610556565b8063ffffffff84160691505092915050565b818103818111156105fb576105fb61056c565b92915050565b60008261061057610610610556565b500690565b808201808211156105fb576105fb61056c565b60408101818360005b6002811015610650578151835260209283019290910190600101610631565b50505092915050565b60006020828403121561066b57600080fd5b5051919050565b60008261068157610681610556565b50049056fea26469706673582212203ed4f54b5c3ac97ec16932b851c3884fd4ebd0fd8ffb40f2214c8a681a48654064736f6c634300081c0033a2646970667358221220d17bdb8c395d34d89c5ea981cf34c6c0bca5869812830937b1cdadc7fc2cb69064736f6c634300081c00336080604052348015600f57600080fd5b5061176a8061001f6000396000f3fe608060405234801561001057600080fd5b506004361061002b5760003560e01c80636183f6b414610030575b600080fd5b61004361003e3660046114cf565b610057565b604051901515815260200160405180910390f35b6000611460565b600080600184846000805b821561008b575092938183058581029091039350909181830290039081610069565b505050600181111561009c57600080fd5b505060008112156100aa5783015b9392505050565b60405181602084028301815160208301925060005b828410156100f7578185526000805160206116558339815191528451830991506020850194506020840193506100c6565b61010f6000805160206116558339815191528361005e565b91506020850394506020840393508592505b828411156101665760008051602061165583398151915285518309905060008051602061165583398151915284518309818552601f1995860195909401939150610121565b5090915250505050565b600080516020611655833981519152811061018f576000805260206000f35b50565b61019e61024435610170565b6101aa61026435610170565b6101b661028435610170565b6101c26102a435610170565b6101ce6102c435610170565b6101da6102e435610170565b565b604080516000805160206116f58339815191528152600080516020611675833981519152602080830191825260008051602061163583398151915283850190815260008051602061159583398151915260608086019182527eb45d0d6a654335fbd3f18078228ed207ad29378ac8b9045de2f98b8c76386660808088019190915260008051602061153583398151915260a08801527e38bf4875e9326c9947dc7fe41ada55de0f4499a06e0b0c9503cb0ed3770e6160c088015260008051602061155583398151915260e08801526000805160206116b58339815191526101008801526000805160206115d58339815191526101208801526000805160206115f58339815191526101408801526000805160206115758339815191526101608801526000805160206116958339815191526101808801526000805160206116d58339815191526101a08801526000805160206117158339815191526101c08801526000805160206116158339815191526101e088015289356102008801528985013561022088015289880135610240880152908901356102608701526004356102808701526024356102a08701526044356102c08701526064356102e087015260843561030087015260a43561032087015261034086206000805160206116558339815191529081900689860181815295909520819006978901978852848752965190945260c43590915260e435905290822083900680855290929091908280096102c08501528181526101043560208201526020610104013560408201526101443560608201526020610144013560808201526101843560a08201526020610184013560c082015260008051602061165583398151915260e082200691508160608501528181526102443560208201526102643560408201526102843560608201526102a43560808201526102c43560a08201526102e43560c082015260008051602061165583398151915260e08220068060c086015260008051602061165583398151915283850960a0860152600080516020611655833981519152838409925060008051602061165583398151915283840992506000805160206116558339815191528384099250600080516020611655833981519152838409925060008051602061165583398151915283840992506000805160206116558339815191528384099250600080516020611655833981519152838409925060008051602061165583398151915283840992506000805160206116558339815191528384099250600080516020611655833981519152838409925060008051602061165583398151915283840992506000805160206116558339815191528384099250600080516020611655833981519152838409925060008051602061165583398151915283840992506000805160206116558339815191528384099250826080860152600080516020611655833981519152806001850301069250826102e08601528261030086015260008051602061165583398151915281820992508260e0860152600080516020611655833981519152818409925082610100860152600080516020611655833981519152818409925082610120860152600080516020611655833981519152818409610140860152506101c43581526101e435602082015261020435604082015261022435606082015260809020600080516020611655833981519152900661016090930192909252505050565b60016000805160206116558339815191528060008051602061165583398151915283606086015103010661800009610320830152600080516020611655833981519152600080516020611515833981519152820990506000805160206116558339815191528060008051602061165583398151915283606086015103010661800009610340830152600080516020611655833981519152600080516020611515833981519152820990506000805160206116558339815191528060008051602061165583398151915283606086015103010661800009610360830152600080516020611655833981519152600080516020611515833981519152820990506000805160206116558339815191528060008051602061165583398151915283606086015103010661800009610380830152610810600561030084016100b1565b6102e0820151600191506000805160206116558339815191528161032085015109610320840152600080516020611655833981519152600080516020611515833981519152830991506000805160206116558339815191528082610340860151098309610340840152600080516020611655833981519152600080516020611515833981519152830991506000805160206116558339815191528082610360860151098309610360840152600080516020611655833981519152600080516020611515833981519152830991506000805160206116558339815191528082610380860151098309610380840152505050565b60006000805160206116558339815191528060008051602061165583398151915260008601356103208601510983030106905060008051602061165583398151915280600080516020611655833981519152602086013561034086015109830301069050600080516020611655833981519152806000805160206116558339815191526040860135610360860151098303010690506000805160206116558339815191528060008051602061165583398151915260608601356103808601510983030106905080610180830152505050565b6101808101516000805160206116558339815191526102c083015161032084015109600080516020611655833981519152806102a4356020860151096102443508600080516020611655833981519152604085015182089050600080516020611655833981519152806102c4356020870151096102643508600080516020611655833981519152604086015182089050600080516020611655833981519152604086015161028435086000805160206116558339815191528160008051602061165583398151915284860909925050506000805160206116558339815191526102e43582099050600080516020611655833981519152600085015182099050600080516020611655833981519152808360008051602061165583398151915203068408925060008051602061165583398151915280826000805160206116558339815191520306840892505050806101a08301525050565b81358152602091820135910152565b6040518151815260208201516020820152825160408201526020830151606082015260408260808360066107d05a03fa905080610b7c576000805260206000f35b505050565b50505050565b600060405183815284602082015285604082015260408160608360076107d05a03fa915081610bba576000805260206000f35b825160408201526020830151606082015260408360808360066107d05a03fa91505080610beb576000805260206000f35b5050505050565b600060405183815284602082015285604082015260408360608360076107d05a03fa91505080610beb576000805260206000f35b610b7c836020840151845184610bf2565b6101c0810160408201516040516101008101604052610c776000805160206115d58339815191526000805160206116b58339815191528590815260200152565b610cb66000805160206116558339815191526102643561024435096000805160206116758339815191526000805160206116f583398151915286610b87565b610ce16102443560008051602061159583398151915260008051602061163583398151915286610b87565b610d1d610264356000805160206115358339815191527eb45d0d6a654335fbd3f18078228ed207ad29378ac8b9045de2f98b8c76386686610b87565b610d59610284356000805160206115558339815191527e38bf4875e9326c9947dc7fe41ada55de0f4499a06e0b0c9503cb0ed3770e6186610b87565b60a08401516000805160206116558339815191528360008051602061165583398151915283610244350808600080516020611655833981519152846000805160206116558339815191528060028609610264350808600080516020611655833981519152856000805160206116558339815191528060038709610284350808925060008051602061165583398151915260008801516000805160206116558339815191528560008051602061165583398151915285870909096000805160206116558339815191526102c08901516103208a015109610e3c60c460c08801610b2c565b610e716000805160206116558339815191526101608b01516000805160206116558339815191528486080860c0880188610c26565b505060008051602061165583398151915285600080516020611655833981519152806102a43560208c015109610244350808915060008051602061165583398151915285600080516020611655833981519152806102c43560208c01510961026435080890506000805160206116558339815191526102e43560008051602061165583398151915260208a015160008b015109099250610f54600080516020611655833981519152846000805160206116558339815191528486090960008051602061161583398151915260008051602061171583398151915260408801610bf2565b505050610f6661010460808301610b2c565b610f826080850151602061014401356101443560808501610b87565b60808401516000805160206116558339815191529080099150610fb0826101a4356101843560808501610b87565b610fcc6102e085015160a0830151608084015160808501610bf2565b6000805160206115b583398151915260206040830101516000805160206115b5833981519152030660206040830101526000805160206115b583398151915260a08201516000805160206115b5833981519152030660a08201526110308184610b3b565b61103d6040820184610b3b565b610b816080820184610b3b565b6101c081015161020082019081526101e082015161022083015260c08201516110799060243560043584610b87565b60e082015161108e9060643560443584610b87565b6101008201516110a49060a43560843584610b87565b6110d16101208301516000805160206115758339815191526000805160206115f583398151915284610b87565b6110fe6101408301516000805160206116d583398151915260008051602061169583398151915284610b87565b5050565b6000805160206116558339815191526101a082015160008051602061165583398151915203066000805160206116558339815191528060c08401516102443509820890506000805160206116558339815191528060e084015161026435098208905060008051602061165583398151915280610100840151610284350982089050600080516020611655833981519152806101208401516102a4350982089050600080516020611655833981519152806101408401516102c4350982089050600080516020611655833981519152806101608401516102e43509820890506110fe81600260016102408601610bf2565b6000604051610240810160405261018081016101c08201610200830161121a6101c484610b2c565b61122661020483610b2c565b6112366101608701518386610c26565b6112408385610b3b565b6000805160206115b583398151915260208501516000805160206115b5833981519152030660208501527f26186a2d65ee4d2f9c9a5b91f86597d35f192cd120caf7e935d8443d1938e23d60408501527f30441fd1b5d3370482c42152a8899027716989a6996c2535bc9f7fee8aaef79e60608501527f1970ea81dd6992adfbc571effb03503adbbb6a857f578403c6c40e22d65b3c0260808501527f054793348f12c0cf5622c340573cb277586319de359ab9389778f689786b1e4860a085015261131460608701518460c08701610c26565b60008051602061165583398151915260608701516101608801510992506000805160206116558339815191526000805160206115158339815191528409925061135e838383610c26565b61136b8160c08601610b3b565b50505061137f610200840160c08301610b3b565b610260830180516000805160206115b58339815191529081030690526113ac610240840160c08301610b3b565b7f198e9393920d483a7260bfb731fb5d25f1aa493335a9e71297e485b7aef312c26101008201527f1800deef121f1e76426a00665e5c4479674322d4f75edadd46debd5cd992f6ed6101208201527f090689d0585ff075ec9e99ad690c3395bc4b313370b38ef355acdadcd122975b6101408201527f12c85ea5db8c6deb4aab71808dcb408fe3d1e7690c43d37b4ce6cc0166fa7daa6101608201526020816101808360086107d05a03fa90511692915050565b6040516103a08101604052611473610192565b61147d83826101dc565b611486816106d1565b6114908382610902565b611499816109d4565b6114a281610c37565b6114ab8161104a565b6114b481611102565b6114bd816111f2565b6103a082036040528060005260206000f35b60008061038083850312156114e357600080fd5b6103008301848111156114f557600080fd5b839250846103808501111561150957600080fd5b80915050925092905056fe2d1ba66f5941dc91017171fa69ec2bd0022a2a2d4115a009a93458fd4e26ecfb1c3f0ab6aad2092981fe39d59f0138ad83c6ac564efebad5320eda6a06a7f977028f005be567407733fd4415261e102cb131ab4dfc9e130d7df4c82d47bd0b371095554aa398228ec11f6fe9e7a018ae498c72a73da43b443052281fc7432bc711ad887869746fc00f83d60ba1e7176bbd2048cd1ddeeba6639a02ee6e033acd30644e72e131a029b85045b68181585d97816a916871ca8d3c208c16d87cfd47095d12a23430ef4a64c329b9af841fa9933b68e9abf27c5dae570ebf59d23da01f61d8a9e01f214bbc77593207430a3ce6e979f18933b2410d2d5cb37f5ef89918276c02abe716973fd3aeef389ea67929302e586332e9b4c5c5b3d690d8f6962449b96a9db26c11c4efdde9128a1f6886def1262abcdb728793ba0d3c03d97330644e72e131a029b85045b68181585d2833e84879b9709143e1f593f0000001155035917b6435159b67f1005532735bc8380a00167522f6e85d37a354d696281aa4b781cfcbc95707d093cd0bdb02f670af59eb580e7cc59f6995763a9c0b1e2f4ee20fd1a6fba41bee70170910585c1c3f6cab200fd6895028395f4a3f9e19104f837128bfdadf2dca18fb80fa1479523702cf827469f2c405b2d0b916d29f199f94f086c6c045d379114eef2f7ffbaf5c92cab2b384f8752acbfa8971bedb0f24bc1b1c824d3e091458f600cd2b210bc7464ea77775ae02ec6b8da0dda664a2646970667358221220508465f1abe413b93f53aaf7b96db190b810622f5386b36d7e31c2765404353364736f6c634300081c0033",
  "linkReferences": {
    "poseidon-solidity/PoseidonT3.sol": {
      "PoseidonT3": [
        {
          "length": 20,
          "start": 8373
        },
        {
          "length": 20,
          "start": 12295
        },
        {
          "length": 20,
          "start": 15599
        },
        {
          "length": 20,
          "start": 18503
        }
      ]
    }
  },
  "deployedLinkReferences": {
    "poseidon-solidity/PoseidonT3.sol": {
      "PoseidonT3": [
        {
          "length": 20,
          "start": 7984
        },
        {
          "length": 20,
          "start": 11906
        },
        {
          "length": 20,
          "start": 15210
        },
        {
          "length": 20,
          "start": 18114
        }
      ]
    }
  }
}